{
  "contractName": "Agent",
  "abi": [
    {
      "constant": true,
      "inputs": [],
      "name": "duration",
      "outputs": [
        {
          "name": "",
          "type": "uint256"
        }
      ],
      "payable": false,
      "stateMutability": "view",
      "type": "function"
    },
    {
      "constant": false,
      "inputs": [],
      "name": "stopContract",
      "outputs": [],
      "payable": false,
      "stateMutability": "nonpayable",
      "type": "function"
    },
    {
      "constant": false,
      "inputs": [],
      "name": "kill",
      "outputs": [],
      "payable": false,
      "stateMutability": "nonpayable",
      "type": "function"
    },
    {
      "constant": true,
      "inputs": [],
      "name": "artist",
      "outputs": [
        {
          "name": "",
          "type": "address"
        }
      ],
      "payable": false,
      "stateMutability": "view",
      "type": "function"
    },
    {
      "constant": true,
      "inputs": [],
      "name": "owner",
      "outputs": [
        {
          "name": "",
          "type": "address"
        }
      ],
      "payable": false,
      "stateMutability": "view",
      "type": "function"
    },
    {
      "constant": false,
      "inputs": [],
      "name": "resumeContract",
      "outputs": [],
      "payable": false,
      "stateMutability": "nonpayable",
      "type": "function"
    },
    {
      "constant": false,
      "inputs": [],
      "name": "deposit",
      "outputs": [
        {
          "name": "",
          "type": "bool"
        }
      ],
      "payable": true,
      "stateMutability": "payable",
      "type": "function"
    },
    {
      "constant": false,
      "inputs": [],
      "name": "withdrawal",
      "outputs": [],
      "payable": false,
      "stateMutability": "nonpayable",
      "type": "function"
    },
    {
      "payable": true,
      "stateMutability": "payable",
      "type": "fallback"
    },
    {
      "anonymous": false,
      "inputs": [
        {
          "indexed": false,
          "name": "commission",
          "type": "address"
        }
      ],
      "name": "CommissionCreated",
      "type": "event"
    },
    {
      "constant": false,
      "inputs": [
        {
          "name": "_artist",
          "type": "address"
        },
        {
          "name": "_ratePP",
          "type": "uint256"
        }
      ],
      "name": "setArtist",
      "outputs": [],
      "payable": false,
      "stateMutability": "nonpayable",
      "type": "function"
    },
    {
      "constant": false,
      "inputs": [
        {
          "name": "pct",
          "type": "uint8"
        }
      ],
      "name": "setCommissionPct",
      "outputs": [],
      "payable": false,
      "stateMutability": "nonpayable",
      "type": "function"
    },
    {
      "constant": true,
      "inputs": [],
      "name": "getCommissionPct",
      "outputs": [
        {
          "name": "",
          "type": "uint8"
        }
      ],
      "payable": false,
      "stateMutability": "view",
      "type": "function"
    },
    {
      "constant": false,
      "inputs": [
        {
          "name": "_duration",
          "type": "uint256"
        }
      ],
      "name": "setContractDuration",
      "outputs": [],
      "payable": false,
      "stateMutability": "nonpayable",
      "type": "function"
    },
    {
      "constant": true,
      "inputs": [],
      "name": "getArtistRatePP",
      "outputs": [
        {
          "name": "",
          "type": "uint256"
        }
      ],
      "payable": false,
      "stateMutability": "view",
      "type": "function"
    },
    {
      "constant": true,
      "inputs": [
        {
          "name": "width",
          "type": "uint16"
        },
        {
          "name": "height",
          "type": "uint16"
        }
      ],
      "name": "getQuote",
      "outputs": [
        {
          "name": "",
          "type": "uint256"
        }
      ],
      "payable": false,
      "stateMutability": "view",
      "type": "function"
    },
    {
      "constant": false,
      "inputs": [
        {
          "name": "width",
          "type": "uint16"
        },
        {
          "name": "height",
          "type": "uint16"
        }
      ],
      "name": "commissionArt",
      "outputs": [
        {
          "name": "",
          "type": "address"
        }
      ],
      "payable": true,
      "stateMutability": "payable",
      "type": "function"
    },
    {
      "constant": true,
      "inputs": [],
      "name": "getMyCommissions",
      "outputs": [
        {
          "name": "",
          "type": "address[]"
        }
      ],
      "payable": false,
      "stateMutability": "view",
      "type": "function"
    },
    {
      "constant": true,
      "inputs": [
        {
          "name": "patron",
          "type": "address"
        }
      ],
      "name": "getPatronCommissions",
      "outputs": [
        {
          "name": "",
          "type": "address[]"
        }
      ],
      "payable": false,
      "stateMutability": "view",
      "type": "function"
    }
  ],
  "bytecode": "0x608060405260008060146101000a81548160ff02191690831515021790555061012c600355601e600460006101000a81548160ff021916908360ff160217905550336000806101000a81548173ffffffffffffffffffffffffffffffffffffffff021916908373ffffffffffffffffffffffffffffffffffffffff16021790555061278d8061008f6000396000f30060806040526004361062000103576000357c0100000000000000000000000000000000000000000000000000000000900463ffffffff1680630fb5a6b4146200010557806312253a6c14620001335780631e63548c146200014d5780631f38e14214620001ea5780632192726b146200021d57806326103f13146200024d578063291e855214620002be57806341c0e1b5146200031457806343bc1612146200032e5780636e0d56de146200038857806377a8d48214620003fc5780638ab62da3146200044c5780638da5cb5b146200047a578063c4bc5da514620004d4578063d0e30db014620004ee578063d4e932921462000512578063dc01a939146200052c575b005b3480156200011257600080fd5b506200011d62000560565b6040518082815260200191505060405180910390f35b3480156200014057600080fd5b506200014b62000566565b005b3480156200015a57600080fd5b5062000191600480360381019080803573ffffffffffffffffffffffffffffffffffffffff1690602001909291905050506200066e565b6040518080602001828103825283818151815260200191508051906020019060200280838360005b83811015620001d6578082015181840152602081019050620001b9565b505050509050019250505060405180910390f35b348015620001f757600080fd5b506200021b600480360381019080803560ff1690602001909291905050506200073d565b005b3480156200022a57600080fd5b506200024b600480360381019080803590602001909291905050506200085a565b005b3480156200025a57600080fd5b50620002656200094f565b6040518080602001828103825283818151815260200191508051906020019060200280838360005b83811015620002aa5780820151818401526020810190506200028d565b505050509050019250505060405180910390f35b348015620002cb57600080fd5b50620002fe600480360381019080803561ffff169060200190929190803561ffff16906020019092919050505062000961565b6040518082815260200191505060405180910390f35b3480156200032157600080fd5b506200032c6200097a565b005b3480156200033b57600080fd5b506200034662000a9f565b604051808273ffffffffffffffffffffffffffffffffffffffff1673ffffffffffffffffffffffffffffffffffffffff16815260200191505060405180910390f35b620003ba600480360381019080803561ffff169060200190929190803561ffff16906020019092919050505062000ac5565b604051808273ffffffffffffffffffffffffffffffffffffffff1673ffffffffffffffffffffffffffffffffffffffff16815260200191505060405180910390f35b3480156200040957600080fd5b506200044a600480360381019080803573ffffffffffffffffffffffffffffffffffffffff1690602001909291908035906020019092919050505062000e2e565b005b3480156200045957600080fd5b506200046462000f65565b6040518082815260200191505060405180910390f35b3480156200048757600080fd5b506200049262001024565b604051808273ffffffffffffffffffffffffffffffffffffffff1673ffffffffffffffffffffffffffffffffffffffff16815260200191505060405180910390f35b348015620004e157600080fd5b50620004ec62001049565b005b620004f862001150565b604051808215151515815260200191505060405180910390f35b3480156200051f57600080fd5b506200052a62001174565b005b3480156200053957600080fd5b5062000544620012fd565b604051808260ff1660ff16815260200191505060405180910390f35b60035481565b6000809054906101000a900473ffffffffffffffffffffffffffffffffffffffff1673ffffffffffffffffffffffffffffffffffffffff163373ffffffffffffffffffffffffffffffffffffffff1614151562000651576040517f08c379a00000000000000000000000000000000000000000000000000000000081526004018080602001828103825260218152602001807f4f6e6c79206f776e65722063616e2063616c6c20746869732066756e6374696f81526020017f6e0000000000000000000000000000000000000000000000000000000000000081525060400191505060405180910390fd5b6001600060146101000a81548160ff021916908315150217905550565b6060600560008373ffffffffffffffffffffffffffffffffffffffff1673ffffffffffffffffffffffffffffffffffffffff1681526020019081526020016000208054806020026020016040519081016040528092919081815260200182805480156200073157602002820191906000526020600020905b8160009054906101000a900473ffffffffffffffffffffffffffffffffffffffff1673ffffffffffffffffffffffffffffffffffffffff1681526020019060010190808311620006e6575b50505050509050919050565b6000809054906101000a900473ffffffffffffffffffffffffffffffffffffffff1673ffffffffffffffffffffffffffffffffffffffff163373ffffffffffffffffffffffffffffffffffffffff1614151562000828576040517f08c379a00000000000000000000000000000000000000000000000000000000081526004018080602001828103825260218152602001807f4f6e6c79206f776e65722063616e2063616c6c20746869732066756e6374696f81526020017f6e0000000000000000000000000000000000000000000000000000000000000081525060400191505060405180910390fd5b60648160ff16111515156200083c57600080fd5b80600460006101000a81548160ff021916908360ff16021790555050565b6000809054906101000a900473ffffffffffffffffffffffffffffffffffffffff1673ffffffffffffffffffffffffffffffffffffffff163373ffffffffffffffffffffffffffffffffffffffff1614151562000945576040517f08c379a00000000000000000000000000000000000000000000000000000000081526004018080602001828103825260218152602001807f4f6e6c79206f776e65722063616e2063616c6c20746869732066756e6374696f81526020017f6e0000000000000000000000000000000000000000000000000000000000000081525060400191505060405180910390fd5b8060038190555050565b60606200095c336200066e565b905090565b60006002548261ffff168461ffff160202905092915050565b6000809054906101000a900473ffffffffffffffffffffffffffffffffffffffff1673ffffffffffffffffffffffffffffffffffffffff163373ffffffffffffffffffffffffffffffffffffffff1614151562000a65576040517f08c379a00000000000000000000000000000000000000000000000000000000081526004018080602001828103825260218152602001807f4f6e6c79206f776e65722063616e2063616c6c20746869732066756e6374696f81526020017f6e0000000000000000000000000000000000000000000000000000000000000081525060400191505060405180910390fd5b6000809054906101000a900473ffffffffffffffffffffffffffffffffffffffff1673ffffffffffffffffffffffffffffffffffffffff16ff5b600160009054906101000a900473ffffffffffffffffffffffffffffffffffffffff1681565b6000806000806000600160009054906101000a900473ffffffffffffffffffffffffffffffffffffffff1673ffffffffffffffffffffffffffffffffffffffff161415151562000b1457600080fd5b62000b20868662000961565b92506064600460009054906101000a900460ff1660ff16840281151562000b4357fe5b049150600160009054906101000a900473ffffffffffffffffffffffffffffffffffffffff16303388886003544201888862000b7e620013ff565b808973ffffffffffffffffffffffffffffffffffffffff1673ffffffffffffffffffffffffffffffffffffffff1681526020018873ffffffffffffffffffffffffffffffffffffffff1673ffffffffffffffffffffffffffffffffffffffff1681526020018773ffffffffffffffffffffffffffffffffffffffff1673ffffffffffffffffffffffffffffffffffffffff1681526020018661ffff1661ffff1681526020018561ffff1661ffff16815260200184815260200183815260200182815260200198505050505050505050604051809103906000f08015801562000c6a573d6000803e3d6000fd5b509050600560003373ffffffffffffffffffffffffffffffffffffffff1673ffffffffffffffffffffffffffffffffffffffff1681526020019081526020016000208190806001815401808255809150509060018203906000526020600020016000909192909190916101000a81548173ffffffffffffffffffffffffffffffffffffffff021916908373ffffffffffffffffffffffffffffffffffffffff160217905550507f0cf53f1fe3628b4ec201dbe641dde5eba321661f303fea3bfba3669bdbb0258681604051808273ffffffffffffffffffffffffffffffffffffffff1673ffffffffffffffffffffffffffffffffffffffff16815260200191505060405180910390a1600034111562000e22578073ffffffffffffffffffffffffffffffffffffffff1663b60d4288346040518263ffffffff167c01000000000000000000000000000000000000000000000000000000000281526004016020604051808303818588803b15801562000de257600080fd5b505af115801562000df7573d6000803e3d6000fd5b50505050506040513d602081101562000e0f57600080fd5b8101908080519060200190929190505050505b80935050505092915050565b6000809054906101000a900473ffffffffffffffffffffffffffffffffffffffff1673ffffffffffffffffffffffffffffffffffffffff163373ffffffffffffffffffffffffffffffffffffffff1614151562000f19576040517f08c379a00000000000000000000000000000000000000000000000000000000081526004018080602001828103825260218152602001807f4f6e6c79206f776e65722063616e2063616c6c20746869732066756e6374696f81526020017f6e0000000000000000000000000000000000000000000000000000000000000081525060400191505060405180910390fd5b81600160006101000a81548173ffffffffffffffffffffffffffffffffffffffff021916908373ffffffffffffffffffffffffffffffffffffffff160217905550806002819055505050565b60008060009054906101000a900473ffffffffffffffffffffffffffffffffffffffff1673ffffffffffffffffffffffffffffffffffffffff163373ffffffffffffffffffffffffffffffffffffffff161480620010105750600160009054906101000a900473ffffffffffffffffffffffffffffffffffffffff1673ffffffffffffffffffffffffffffffffffffffff163373ffffffffffffffffffffffffffffffffffffffff16145b15156200101c57600080fd5b600254905090565b6000809054906101000a900473ffffffffffffffffffffffffffffffffffffffff1681565b6000809054906101000a900473ffffffffffffffffffffffffffffffffffffffff1673ffffffffffffffffffffffffffffffffffffffff163373ffffffffffffffffffffffffffffffffffffffff1614151562001134576040517f08c379a00000000000000000000000000000000000000000000000000000000081526004018080602001828103825260218152602001807f4f6e6c79206f776e65722063616e2063616c6c20746869732066756e6374696f81526020017f6e0000000000000000000000000000000000000000000000000000000000000081525060400191505060405180910390fd5b60008060146101000a81548160ff021916908315150217905550565b60008060149054906101000a900460ff1615156200116d57600080fd5b6001905090565b600060149054906101000a900460ff1615156200119057600080fd5b6000809054906101000a900473ffffffffffffffffffffffffffffffffffffffff1673ffffffffffffffffffffffffffffffffffffffff163373ffffffffffffffffffffffffffffffffffffffff161415156200127b576040517f08c379a00000000000000000000000000000000000000000000000000000000081526004018080602001828103825260218152602001807f4f6e6c79206f776e65722063616e2063616c6c20746869732066756e6374696f81526020017f6e0000000000000000000000000000000000000000000000000000000000000081525060400191505060405180910390fd5b6000809054906101000a900473ffffffffffffffffffffffffffffffffffffffff1673ffffffffffffffffffffffffffffffffffffffff166108fc3073ffffffffffffffffffffffffffffffffffffffff16319081150290604051600060405180830381858888f19350505050158015620012fa573d6000803e3d6000fd5b50565b60008060009054906101000a900473ffffffffffffffffffffffffffffffffffffffff1673ffffffffffffffffffffffffffffffffffffffff163373ffffffffffffffffffffffffffffffffffffffff16141515620013ea576040517f08c379a00000000000000000000000000000000000000000000000000000000081526004018080602001828103825260218152602001807f4f6e6c79206f776e65722063616e2063616c6c20746869732066756e6374696f81526020017f6e0000000000000000000000000000000000000000000000000000000000000081525060400191505060405180910390fd5b600460009054906101000a900460ff16905090565b604051611351806200141183390190560060806040526000600860006101000a81548160ff02191690831515021790555034801561002b57600080fd5b5060405161010080611351833981018060405281019080805190602001909291908051906020019092919080519060200190929190805190602001909291908051906020019092919080519060200190929190805190602001909291908051906020019092919050505081811015156100a357600080fd5b60008561ffff161180156100bb575060008461ffff16115b15156100c657600080fd5b60008873ffffffffffffffffffffffffffffffffffffffff1614158015610104575060008773ffffffffffffffffffffffffffffffffffffffff1614155b8015610127575060008673ffffffffffffffffffffffffffffffffffffffff1614155b151561013257600080fd5b876000806101000a81548173ffffffffffffffffffffffffffffffffffffffff021916908373ffffffffffffffffffffffffffffffffffffffff16021790555085600260006101000a81548173ffffffffffffffffffffffffffffffffffffffff021916908373ffffffffffffffffffffffffffffffffffffffff16021790555086600160006101000a81548173ffffffffffffffffffffffffffffffffffffffff021916908373ffffffffffffffffffffffffffffffffffffffff16021790555084600260146101000a81548161ffff021916908361ffff16021790555083600260166101000a81548161ffff021916908361ffff1602179055508260038190555081600481905550806005819055506000600660006101000a81548160ff0219169083600481111561026257fe5b0217905550600160009054906101000a900473ffffffffffffffffffffffffffffffffffffffff1673ffffffffffffffffffffffffffffffffffffffff16600260009054906101000a900473ffffffffffffffffffffffffffffffffffffffff1673ffffffffffffffffffffffffffffffffffffffff166000809054906101000a900473ffffffffffffffffffffffffffffffffffffffff1673ffffffffffffffffffffffffffffffffffffffff167f454b0172f64812df0cd504c2bd7df7aab8ff328a54d946b4bd0fa7c527adf9cc60405160405180910390a45050505050505050610ffd806103546000396000f3006080604052600436106100d0576000357c0100000000000000000000000000000000000000000000000000000000900463ffffffff1680630ba32b27146100db5780630ef267431461013257806329dcb0cf1461016557806343bc161214610190578063590e1ae3146101e757806363c06101146101fe57806380e659271461022f5780639ededf771461025a578063a035b1fe1461028d578063b51cb82a146102b8578063b60d4288146102eb578063c19d93fb1461030d578063f59d6b9714610346578063f5ff5c761461035d575b6100d86103b4565b50005b3480156100e757600080fd5b506100f061058b565b604051808273ffffffffffffffffffffffffffffffffffffffff1673ffffffffffffffffffffffffffffffffffffffff16815260200191505060405180910390f35b34801561013e57600080fd5b506101476105b1565b604051808261ffff1661ffff16815260200191505060405180910390f35b34801561017157600080fd5b5061017a6105c5565b6040518082815260200191505060405180910390f35b34801561019c57600080fd5b506101a56105cb565b604051808273ffffffffffffffffffffffffffffffffffffffff1673ffffffffffffffffffffffffffffffffffffffff16815260200191505060405180910390f35b3480156101f357600080fd5b506101fc6105f0565b005b34801561020a57600080fd5b5061022d600480360381019080803560001916906020019092919050505061093e565b005b34801561023b57600080fd5b50610244610b71565b6040518082815260200191505060405180910390f35b34801561026657600080fd5b5061026f610b77565b604051808261ffff1661ffff16815260200191505060405180910390f35b34801561029957600080fd5b506102a2610b8b565b6040518082815260200191505060405180910390f35b3480156102c457600080fd5b506102cd610b91565b60405180826000191660001916815260200191505060405180910390f35b6102f36103b4565b604051808215151515815260200191505060405180910390f35b34801561031957600080fd5b50610322610c2f565b6040518082600481111561033257fe5b60ff16815260200191505060405180910390f35b34801561035257600080fd5b5061035b610c42565b005b34801561036957600080fd5b50610372610e4c565b604051808273ffffffffffffffffffffffffffffffffffffffff1673ffffffffffffffffffffffffffffffffffffffff16815260200191505060405180910390f35b60006003548042101515610430576040517f08c379a00000000000000000000000000000000000000000000000000000000081526004018080602001828103825260108152602001807f436f6e747261637420657870697265640000000000000000000000000000000081525060200191505060405180910390fd5b600080600481111561043e57fe5b600660009054906101000a900460ff16600481111561045957fe5b14151561046557600080fd5b6004543073ffffffffffffffffffffffffffffffffffffffff1631101515610582576001600660006101000a81548160ff021916908360048111156104a657fe5b0217905550600160009054906101000a900473ffffffffffffffffffffffffffffffffffffffff1673ffffffffffffffffffffffffffffffffffffffff16600260009054906101000a900473ffffffffffffffffffffffffffffffffffffffff1673ffffffffffffffffffffffffffffffffffffffff166000809054906101000a900473ffffffffffffffffffffffffffffffffffffffff1673ffffffffffffffffffffffffffffffffffffffff167fc6389bf577814d24982845d646dbf66fcabfa7783b6948d7d577bd1dd14c807d60405160405180910390a45b60019250505090565b600260009054906101000a900473ffffffffffffffffffffffffffffffffffffffff1681565b600260169054906101000a900461ffff1681565b60035481565b6000809054906101000a900473ffffffffffffffffffffffffffffffffffffffff1681565b600080600260009054906101000a900473ffffffffffffffffffffffffffffffffffffffff168073ffffffffffffffffffffffffffffffffffffffff163373ffffffffffffffffffffffffffffffffffffffff1614151561065057600080fd5b6003548042101515156106cb576040517f08c379a00000000000000000000000000000000000000000000000000000000081526004018080602001828103825260148152602001807f436f6e7472616374206e6f74206578706972656400000000000000000000000081525060200191505060405180910390fd5b60038060048111156106d957fe5b600660009054906101000a900460ff1660048111156106f457fe5b1415151561070157600080fd5b600480600481111561070f57fe5b600660009054906101000a900460ff16600481111561072a57fe5b1415151561073757600080fd5b6004600660006101000a81548160ff0219169083600481111561075657fe5b02179055503073ffffffffffffffffffffffffffffffffffffffff16319550600454861061078657600454610788565b855b9450600260009054906101000a900473ffffffffffffffffffffffffffffffffffffffff1673ffffffffffffffffffffffffffffffffffffffff166108fc869081150290604051600060405180830381858888f193505050501580156107f2573d6000803e3d6000fd5b50600160009054906101000a900473ffffffffffffffffffffffffffffffffffffffff1673ffffffffffffffffffffffffffffffffffffffff16600260009054906101000a900473ffffffffffffffffffffffffffffffffffffffff1673ffffffffffffffffffffffffffffffffffffffff166000809054906101000a900473ffffffffffffffffffffffffffffffffffffffff1673ffffffffffffffffffffffffffffffffffffffff167fb7c482f0c0b7ad56e2c7004be448a8ead98a8bbe84675fd80b273563099f8560886040518082815260200191505060405180910390a484861115610936576000809054906101000a900473ffffffffffffffffffffffffffffffffffffffff1673ffffffffffffffffffffffffffffffffffffffff166108fc8688039081150290604051600060405180830381858888f19350505050505b505050505050565b6000809054906101000a900473ffffffffffffffffffffffffffffffffffffffff168073ffffffffffffffffffffffffffffffffffffffff163373ffffffffffffffffffffffffffffffffffffffff1614151561099a57600080fd5b6003548042101515610a14576040517f08c379a00000000000000000000000000000000000000000000000000000000081526004018080602001828103825260108152602001807f436f6e747261637420657870697265640000000000000000000000000000000081525060200191505060405180910390fd5b6002806004811115610a2257fe5b600660009054906101000a900460ff166004811115610a3d57fe5b141515610a4957600080fd5b6003600660006101000a81548160ff02191690836004811115610a6857fe5b02179055508360078160001916905550610a80610e72565b600160009054906101000a900473ffffffffffffffffffffffffffffffffffffffff1673ffffffffffffffffffffffffffffffffffffffff16600260009054906101000a900473ffffffffffffffffffffffffffffffffffffffff1673ffffffffffffffffffffffffffffffffffffffff166000809054906101000a900473ffffffffffffffffffffffffffffffffffffffff1673ffffffffffffffffffffffffffffffffffffffff167f4906774def8da39710f86a470f7bfc2e68eb429f64b2090cff63e68c943259fd60075460405180826000191660001916815260200191505060405180910390a450505050565b60055481565b600260149054906101000a900461ffff1681565b60045481565b6000600260009054906101000a900473ffffffffffffffffffffffffffffffffffffffff168073ffffffffffffffffffffffffffffffffffffffff163373ffffffffffffffffffffffffffffffffffffffff16141515610bf057600080fd5b6003806004811115610bfe57fe5b600660009054906101000a900460ff166004811115610c1957fe5b141515610c2557600080fd5b6007549250505090565b600660009054906101000a900460ff1681565b6000809054906101000a900473ffffffffffffffffffffffffffffffffffffffff168073ffffffffffffffffffffffffffffffffffffffff163373ffffffffffffffffffffffffffffffffffffffff16141515610c9e57600080fd5b6003548042101515610d18576040517f08c379a00000000000000000000000000000000000000000000000000000000081526004018080602001828103825260108152602001807f436f6e747261637420657870697265640000000000000000000000000000000081525060200191505060405180910390fd5b6001806004811115610d2657fe5b600660009054906101000a900460ff166004811115610d4157fe5b141515610d4d57600080fd5b6002600660006101000a81548160ff02191690836004811115610d6c57fe5b0217905550600160009054906101000a900473ffffffffffffffffffffffffffffffffffffffff1673ffffffffffffffffffffffffffffffffffffffff16600260009054906101000a900473ffffffffffffffffffffffffffffffffffffffff1673ffffffffffffffffffffffffffffffffffffffff166000809054906101000a900473ffffffffffffffffffffffffffffffffffffffff1673ffffffffffffffffffffffffffffffffffffffff167fe7ccbdddf2d84fab545fb1aad35fd684ef7cce1df6df25facfb32fe3de037f1d60405160405180910390a4505050565b600160009054906101000a900473ffffffffffffffffffffffffffffffffffffffff1681565b6003806004811115610e8057fe5b600660009054906101000a900460ff166004811115610e9b57fe5b141515610ea757600080fd5b60001515600860009054906101000a900460ff161515141515610ec957600080fd5b6001600860006101000a81548160ff021916908315150217905550600160009054906101000a900473ffffffffffffffffffffffffffffffffffffffff1673ffffffffffffffffffffffffffffffffffffffff166108fc6005549081150290604051600060405180830381858888f19350505050158015610f4e573d6000803e3d6000fd5b506000809054906101000a900473ffffffffffffffffffffffffffffffffffffffff1673ffffffffffffffffffffffffffffffffffffffff166108fc3073ffffffffffffffffffffffffffffffffffffffff16319081150290604051600060405180830381858888f19350505050158015610fcd573d6000803e3d6000fd5b50505600a165627a7a723058200a28e668ece0aaae7714d59c7e133ce5cdf46a4203358b8d67260ac8d06d09450029a165627a7a723058209ce9d1c86db43325f1978e88d600f3d3d3651989bf279af2d387c2a39ce706fa0029",
  "source": "pragma solidity ^0.4.24;\n\nimport './Util.sol';\nimport './Commission.sol';\n\ncontract Agent is Stoppable, Mortal {\n\n  address public artist;\n  uint ratePP; // artist's rate per pixel e.g. 50000000000\n  uint public duration = 5 minutes; // contract time duration\n  uint8 private commissionPct = 30;\n  mapping (address => Commission[]) commissions;\n\n  event CommissionCreated(address commission);\n\n  function setArtist(address _artist, uint _ratePP) public onlyOwner {\n    artist = _artist;\n    ratePP = _ratePP;\n  }\n\n  function setCommissionPct(uint8 pct) public onlyOwner {\n    require(pct <= 100);\n    commissionPct = pct;\n  }\n\n  function getCommissionPct() public view onlyOwner returns(uint8) {\n    return commissionPct;\n  }\n\n  function setContractDuration(uint _duration) public onlyOwner {\n    duration = _duration;\n  }\n\n  function getArtistRatePP() public view returns(uint) {\n    require(msg.sender == owner || msg.sender == artist);\n    return ratePP;\n  }\n  \n  function getQuote(uint16 width, uint16 height) public view returns(uint) {\n    return uint(width) * uint(height) * uint(ratePP); \n  }\n\n  function commissionArt(uint16 width, uint16 height) public payable returns(address) {\n    require(artist != 0);\n    uint price = getQuote(width, height);\n    uint cut = price * uint(commissionPct) / 100;\n    Commission c = new Commission(artist, address(this), msg.sender, width, height, now + duration, price, cut);\n    commissions[msg.sender].push(c);\n    emit CommissionCreated(c);\n    if (msg.value > 0) {\n      c.fund.value(msg.value)();\n    }\n    return c;\n  }\n\n  function getMyCommissions() public view returns(Commission[]) {\n    return getPatronCommissions(msg.sender);\n  }\n\n  function getPatronCommissions(address patron) public view returns(Commission[]) {\n    return commissions[patron];\n  }\n\n  function() public payable {}\n\n}",
  "sourcePath": "/Users/briancort/OneDrive/Personal Development/ConsensysEthereum/finalProjectRedo/contracts/Agent.sol",
  "compiler": {
    "name": "solc",
    "version": "0.4.24+commit.e67f0147.Emscripten.clang"
  },
  "schemaVersion": "2.0.1",
  "updatedAt": "2018-11-18T18:57:21.254Z"
}