{
  "contractName": "Agent",
  "abi": [
    {
      "constant": true,
      "inputs": [],
      "name": "duration",
      "outputs": [
        {
          "name": "",
          "type": "uint256"
        }
      ],
      "payable": false,
      "stateMutability": "view",
      "type": "function"
    },
    {
      "constant": false,
      "inputs": [],
      "name": "stopContract",
      "outputs": [],
      "payable": false,
      "stateMutability": "nonpayable",
      "type": "function"
    },
    {
      "constant": false,
      "inputs": [],
      "name": "kill",
      "outputs": [],
      "payable": false,
      "stateMutability": "nonpayable",
      "type": "function"
    },
    {
      "constant": true,
      "inputs": [],
      "name": "artist",
      "outputs": [
        {
          "name": "",
          "type": "address"
        }
      ],
      "payable": false,
      "stateMutability": "view",
      "type": "function"
    },
    {
      "constant": false,
      "inputs": [],
      "name": "resumeContract",
      "outputs": [],
      "payable": false,
      "stateMutability": "nonpayable",
      "type": "function"
    },
    {
      "constant": false,
      "inputs": [],
      "name": "deposit",
      "outputs": [
        {
          "name": "",
          "type": "bool"
        }
      ],
      "payable": true,
      "stateMutability": "payable",
      "type": "function"
    },
    {
      "constant": false,
      "inputs": [],
      "name": "withdrawal",
      "outputs": [],
      "payable": false,
      "stateMutability": "nonpayable",
      "type": "function"
    },
    {
      "payable": true,
      "stateMutability": "payable",
      "type": "fallback"
    },
    {
      "anonymous": false,
      "inputs": [
        {
          "indexed": false,
          "name": "commission",
          "type": "address"
        }
      ],
      "name": "CommissionCreated",
      "type": "event"
    },
    {
      "constant": false,
      "inputs": [
        {
          "name": "_artist",
          "type": "address"
        },
        {
          "name": "_ratePP",
          "type": "uint256"
        }
      ],
      "name": "setArtist",
      "outputs": [],
      "payable": false,
      "stateMutability": "nonpayable",
      "type": "function"
    },
    {
      "constant": false,
      "inputs": [
        {
          "name": "pct",
          "type": "uint8"
        }
      ],
      "name": "setCommissionPct",
      "outputs": [],
      "payable": false,
      "stateMutability": "nonpayable",
      "type": "function"
    },
    {
      "constant": true,
      "inputs": [],
      "name": "getCommissionPct",
      "outputs": [
        {
          "name": "",
          "type": "uint8"
        }
      ],
      "payable": false,
      "stateMutability": "view",
      "type": "function"
    },
    {
      "constant": false,
      "inputs": [
        {
          "name": "_duration",
          "type": "uint256"
        }
      ],
      "name": "setContractDuration",
      "outputs": [],
      "payable": false,
      "stateMutability": "nonpayable",
      "type": "function"
    },
    {
      "constant": true,
      "inputs": [
        {
          "name": "width",
          "type": "uint16"
        },
        {
          "name": "height",
          "type": "uint16"
        }
      ],
      "name": "getQuote",
      "outputs": [
        {
          "name": "",
          "type": "uint256"
        }
      ],
      "payable": false,
      "stateMutability": "view",
      "type": "function"
    },
    {
      "constant": false,
      "inputs": [
        {
          "name": "width",
          "type": "uint16"
        },
        {
          "name": "height",
          "type": "uint16"
        }
      ],
      "name": "commissionArt",
      "outputs": [
        {
          "name": "",
          "type": "address"
        }
      ],
      "payable": true,
      "stateMutability": "payable",
      "type": "function"
    },
    {
      "constant": true,
      "inputs": [],
      "name": "getMyCommissions",
      "outputs": [
        {
          "name": "",
          "type": "address[]"
        }
      ],
      "payable": false,
      "stateMutability": "view",
      "type": "function"
    },
    {
      "constant": true,
      "inputs": [
        {
          "name": "patron",
          "type": "address"
        }
      ],
      "name": "getPatronCommissions",
      "outputs": [
        {
          "name": "",
          "type": "address[]"
        }
      ],
      "payable": false,
      "stateMutability": "view",
      "type": "function"
    }
  ],
  "bytecode": "0x608060405260008060146101000a81548160ff02191690831515021790555061012c600355601e600460006101000a81548160ff021916908360ff160217905550336000806101000a81548173ffffffffffffffffffffffffffffffffffffffff021916908373ffffffffffffffffffffffffffffffffffffffff1602179055506124dd8061008f6000396000f3006080604052600436106100db576000357c0100000000000000000000000000000000000000000000000000000000900463ffffffff1680630fb5a6b4146100dd57806312253a6c146101085780631e63548c1461011f5780631f38e142146101b75780632192726b146101e757806326103f1314610214578063291e85521461028057806341c0e1b5146102d357806343bc1612146102ea5780636e0d56de1461034157806377a8d482146103b3578063c4bc5da514610400578063d0e30db014610417578063d4e9329214610439578063dc01a93914610450575b005b3480156100e957600080fd5b506100f2610481565b6040518082815260200191505060405180910390f35b34801561011457600080fd5b5061011d610487565b005b34801561012b57600080fd5b50610160600480360381019080803573ffffffffffffffffffffffffffffffffffffffff16906020019092919050505061058e565b6040518080602001828103825283818151815260200191508051906020019060200280838360005b838110156101a3578082015181840152602081019050610188565b505050509050019250505060405180910390f35b3480156101c357600080fd5b506101e5600480360381019080803560ff16906020019092919050505061065b565b005b3480156101f357600080fd5b5061021260048036038101908080359060200190929190505050610776565b005b34801561022057600080fd5b5061022961086a565b6040518080602001828103825283818151815260200191508051906020019060200280838360005b8381101561026c578082015181840152602081019050610251565b505050509050019250505060405180910390f35b34801561028c57600080fd5b506102bd600480360381019080803561ffff169060200190929190803561ffff16906020019092919050505061087a565b6040518082815260200191505060405180910390f35b3480156102df57600080fd5b506102e861088f565b005b3480156102f657600080fd5b506102ff6109b3565b604051808273ffffffffffffffffffffffffffffffffffffffff1673ffffffffffffffffffffffffffffffffffffffff16815260200191505060405180910390f35b610371600480360381019080803561ffff169060200190929190803561ffff1690602001909291905050506109d9565b604051808273ffffffffffffffffffffffffffffffffffffffff1673ffffffffffffffffffffffffffffffffffffffff16815260200191505060405180910390f35b3480156103bf57600080fd5b506103fe600480360381019080803573ffffffffffffffffffffffffffffffffffffffff16906020019092919080359060200190929190505050610d37565b005b34801561040c57600080fd5b50610415610e6d565b005b61041f610f73565b604051808215151515815260200191505060405180910390f35b34801561044557600080fd5b5061044e610f96565b005b34801561045c57600080fd5b5061046561111c565b604051808260ff1660ff16815260200191505060405180910390f35b60035481565b6000809054906101000a900473ffffffffffffffffffffffffffffffffffffffff1673ffffffffffffffffffffffffffffffffffffffff163373ffffffffffffffffffffffffffffffffffffffff16141515610571576040517f08c379a00000000000000000000000000000000000000000000000000000000081526004018080602001828103825260218152602001807f4f6e6c79206f776e65722063616e2063616c6c20746869732066756e6374696f81526020017f6e0000000000000000000000000000000000000000000000000000000000000081525060400191505060405180910390fd5b6001600060146101000a81548160ff021916908315150217905550565b6060600560008373ffffffffffffffffffffffffffffffffffffffff1673ffffffffffffffffffffffffffffffffffffffff16815260200190815260200160002080548060200260200160405190810160405280929190818152602001828054801561064f57602002820191906000526020600020905b8160009054906101000a900473ffffffffffffffffffffffffffffffffffffffff1673ffffffffffffffffffffffffffffffffffffffff1681526020019060010190808311610605575b50505050509050919050565b6000809054906101000a900473ffffffffffffffffffffffffffffffffffffffff1673ffffffffffffffffffffffffffffffffffffffff163373ffffffffffffffffffffffffffffffffffffffff16141515610745576040517f08c379a00000000000000000000000000000000000000000000000000000000081526004018080602001828103825260218152602001807f4f6e6c79206f776e65722063616e2063616c6c20746869732066756e6374696f81526020017f6e0000000000000000000000000000000000000000000000000000000000000081525060400191505060405180910390fd5b60648160ff161115151561075857600080fd5b80600460006101000a81548160ff021916908360ff16021790555050565b6000809054906101000a900473ffffffffffffffffffffffffffffffffffffffff1673ffffffffffffffffffffffffffffffffffffffff163373ffffffffffffffffffffffffffffffffffffffff16141515610860576040517f08c379a00000000000000000000000000000000000000000000000000000000081526004018080602001828103825260218152602001807f4f6e6c79206f776e65722063616e2063616c6c20746869732066756e6374696f81526020017f6e0000000000000000000000000000000000000000000000000000000000000081525060400191505060405180910390fd5b8060038190555050565b60606108753361058e565b905090565b600060025482840261ffff1602905092915050565b6000809054906101000a900473ffffffffffffffffffffffffffffffffffffffff1673ffffffffffffffffffffffffffffffffffffffff163373ffffffffffffffffffffffffffffffffffffffff16141515610979576040517f08c379a00000000000000000000000000000000000000000000000000000000081526004018080602001828103825260218152602001807f4f6e6c79206f776e65722063616e2063616c6c20746869732066756e6374696f81526020017f6e0000000000000000000000000000000000000000000000000000000000000081525060400191505060405180910390fd5b6000809054906101000a900473ffffffffffffffffffffffffffffffffffffffff1673ffffffffffffffffffffffffffffffffffffffff16ff5b600160009054906101000a900473ffffffffffffffffffffffffffffffffffffffff1681565b6000806000806000600160009054906101000a900473ffffffffffffffffffffffffffffffffffffffff1673ffffffffffffffffffffffffffffffffffffffff1614151515610a2757600080fd5b610a31868661087a565b92506064600460009054906101000a900460ff1660ff168402811515610a5357fe5b049150600160009054906101000a900473ffffffffffffffffffffffffffffffffffffffff163033888860035442018888610a8c61121d565b808973ffffffffffffffffffffffffffffffffffffffff1673ffffffffffffffffffffffffffffffffffffffff1681526020018873ffffffffffffffffffffffffffffffffffffffff1673ffffffffffffffffffffffffffffffffffffffff1681526020018773ffffffffffffffffffffffffffffffffffffffff1673ffffffffffffffffffffffffffffffffffffffff1681526020018661ffff1661ffff1681526020018561ffff1661ffff16815260200184815260200183815260200182815260200198505050505050505050604051809103906000f080158015610b77573d6000803e3d6000fd5b509050600560003373ffffffffffffffffffffffffffffffffffffffff1673ffffffffffffffffffffffffffffffffffffffff1681526020019081526020016000208190806001815401808255809150509060018203906000526020600020016000909192909190916101000a81548173ffffffffffffffffffffffffffffffffffffffff021916908373ffffffffffffffffffffffffffffffffffffffff160217905550507f0cf53f1fe3628b4ec201dbe641dde5eba321661f303fea3bfba3669bdbb0258681604051808273ffffffffffffffffffffffffffffffffffffffff1673ffffffffffffffffffffffffffffffffffffffff16815260200191505060405180910390a16000341115610d2b578073ffffffffffffffffffffffffffffffffffffffff1663b60d4288346040518263ffffffff167c01000000000000000000000000000000000000000000000000000000000281526004016020604051808303818588803b158015610ced57600080fd5b505af1158015610d01573d6000803e3d6000fd5b50505050506040513d6020811015610d1857600080fd5b8101908080519060200190929190505050505b80935050505092915050565b6000809054906101000a900473ffffffffffffffffffffffffffffffffffffffff1673ffffffffffffffffffffffffffffffffffffffff163373ffffffffffffffffffffffffffffffffffffffff16141515610e21576040517f08c379a00000000000000000000000000000000000000000000000000000000081526004018080602001828103825260218152602001807f4f6e6c79206f776e65722063616e2063616c6c20746869732066756e6374696f81526020017f6e0000000000000000000000000000000000000000000000000000000000000081525060400191505060405180910390fd5b81600160006101000a81548173ffffffffffffffffffffffffffffffffffffffff021916908373ffffffffffffffffffffffffffffffffffffffff160217905550806002819055505050565b6000809054906101000a900473ffffffffffffffffffffffffffffffffffffffff1673ffffffffffffffffffffffffffffffffffffffff163373ffffffffffffffffffffffffffffffffffffffff16141515610f57576040517f08c379a00000000000000000000000000000000000000000000000000000000081526004018080602001828103825260218152602001807f4f6e6c79206f776e65722063616e2063616c6c20746869732066756e6374696f81526020017f6e0000000000000000000000000000000000000000000000000000000000000081525060400191505060405180910390fd5b60008060146101000a81548160ff021916908315150217905550565b60008060149054906101000a900460ff161515610f8f57600080fd5b6001905090565b600060149054906101000a900460ff161515610fb157600080fd5b6000809054906101000a900473ffffffffffffffffffffffffffffffffffffffff1673ffffffffffffffffffffffffffffffffffffffff163373ffffffffffffffffffffffffffffffffffffffff1614151561109b576040517f08c379a00000000000000000000000000000000000000000000000000000000081526004018080602001828103825260218152602001807f4f6e6c79206f776e65722063616e2063616c6c20746869732066756e6374696f81526020017f6e0000000000000000000000000000000000000000000000000000000000000081525060400191505060405180910390fd5b6000809054906101000a900473ffffffffffffffffffffffffffffffffffffffff1673ffffffffffffffffffffffffffffffffffffffff166108fc3073ffffffffffffffffffffffffffffffffffffffff16319081150290604051600060405180830381858888f19350505050158015611119573d6000803e3d6000fd5b50565b60008060009054906101000a900473ffffffffffffffffffffffffffffffffffffffff1673ffffffffffffffffffffffffffffffffffffffff163373ffffffffffffffffffffffffffffffffffffffff16141515611208576040517f08c379a00000000000000000000000000000000000000000000000000000000081526004018080602001828103825260218152602001807f4f6e6c79206f776e65722063616e2063616c6c20746869732066756e6374696f81526020017f6e0000000000000000000000000000000000000000000000000000000000000081525060400191505060405180910390fd5b600460009054906101000a900460ff16905090565b6040516112848061122e83390190560060806040526000600860006101000a81548160ff02191690831515021790555034801561002b57600080fd5b50604051610100806112848339810180604052810190808051906020019092919080519060200190929190805190602001909291908051906020019092919080519060200190929190805190602001909291908051906020019092919080519060200190929190505050876000806101000a81548173ffffffffffffffffffffffffffffffffffffffff021916908373ffffffffffffffffffffffffffffffffffffffff16021790555085600260006101000a81548173ffffffffffffffffffffffffffffffffffffffff021916908373ffffffffffffffffffffffffffffffffffffffff16021790555086600160006101000a81548173ffffffffffffffffffffffffffffffffffffffff021916908373ffffffffffffffffffffffffffffffffffffffff16021790555084600260146101000a81548161ffff021916908361ffff16021790555083600260166101000a81548161ffff021916908361ffff1602179055508260038190555081600481905550806005819055506000600660006101000a81548160ff021916908360048111156101c557fe5b0217905550600160009054906101000a900473ffffffffffffffffffffffffffffffffffffffff1673ffffffffffffffffffffffffffffffffffffffff16600260009054906101000a900473ffffffffffffffffffffffffffffffffffffffff1673ffffffffffffffffffffffffffffffffffffffff166000809054906101000a900473ffffffffffffffffffffffffffffffffffffffff1673ffffffffffffffffffffffffffffffffffffffff167f454b0172f64812df0cd504c2bd7df7aab8ff328a54d946b4bd0fa7c527adf9cc60405160405180910390a45050505050505050610fcd806102b76000396000f3006080604052600436106100d0576000357c0100000000000000000000000000000000000000000000000000000000900463ffffffff1680630ba32b27146100db5780630ef267431461013257806329dcb0cf1461016557806343bc161214610190578063590e1ae3146101e757806363c06101146101fe57806380e659271461022f5780639ededf771461025a578063a035b1fe1461028d578063b51cb82a146102b8578063b60d4288146102eb578063c19d93fb1461030d578063f59d6b9714610346578063f5ff5c761461035d575b6100d86103b4565b50005b3480156100e757600080fd5b506100f061058b565b604051808273ffffffffffffffffffffffffffffffffffffffff1673ffffffffffffffffffffffffffffffffffffffff16815260200191505060405180910390f35b34801561013e57600080fd5b506101476105b1565b604051808261ffff1661ffff16815260200191505060405180910390f35b34801561017157600080fd5b5061017a6105c5565b6040518082815260200191505060405180910390f35b34801561019c57600080fd5b506101a56105cb565b604051808273ffffffffffffffffffffffffffffffffffffffff1673ffffffffffffffffffffffffffffffffffffffff16815260200191505060405180910390f35b3480156101f357600080fd5b506101fc6105f0565b005b34801561020a57600080fd5b5061022d600480360381019080803560001916906020019092919050505061090e565b005b34801561023b57600080fd5b50610244610b41565b6040518082815260200191505060405180910390f35b34801561026657600080fd5b5061026f610b47565b604051808261ffff1661ffff16815260200191505060405180910390f35b34801561029957600080fd5b506102a2610b5b565b6040518082815260200191505060405180910390f35b3480156102c457600080fd5b506102cd610b61565b60405180826000191660001916815260200191505060405180910390f35b6102f36103b4565b604051808215151515815260200191505060405180910390f35b34801561031957600080fd5b50610322610bff565b6040518082600481111561033257fe5b60ff16815260200191505060405180910390f35b34801561035257600080fd5b5061035b610c12565b005b34801561036957600080fd5b50610372610e1c565b604051808273ffffffffffffffffffffffffffffffffffffffff1673ffffffffffffffffffffffffffffffffffffffff16815260200191505060405180910390f35b60006003548042101515610430576040517f08c379a00000000000000000000000000000000000000000000000000000000081526004018080602001828103825260108152602001807f436f6e747261637420657870697265640000000000000000000000000000000081525060200191505060405180910390fd5b600080600481111561043e57fe5b600660009054906101000a900460ff16600481111561045957fe5b14151561046557600080fd5b6004543073ffffffffffffffffffffffffffffffffffffffff1631101515610582576001600660006101000a81548160ff021916908360048111156104a657fe5b0217905550600160009054906101000a900473ffffffffffffffffffffffffffffffffffffffff1673ffffffffffffffffffffffffffffffffffffffff16600260009054906101000a900473ffffffffffffffffffffffffffffffffffffffff1673ffffffffffffffffffffffffffffffffffffffff166000809054906101000a900473ffffffffffffffffffffffffffffffffffffffff1673ffffffffffffffffffffffffffffffffffffffff167fc6389bf577814d24982845d646dbf66fcabfa7783b6948d7d577bd1dd14c807d60405160405180910390a45b60019250505090565b600260009054906101000a900473ffffffffffffffffffffffffffffffffffffffff1681565b600260169054906101000a900461ffff1681565b60035481565b6000809054906101000a900473ffffffffffffffffffffffffffffffffffffffff1681565b600080600260009054906101000a900473ffffffffffffffffffffffffffffffffffffffff168073ffffffffffffffffffffffffffffffffffffffff163373ffffffffffffffffffffffffffffffffffffffff1614151561065057600080fd5b6003548042101515156106cb576040517f08c379a00000000000000000000000000000000000000000000000000000000081526004018080602001828103825260148152602001807f436f6e7472616374206e6f74206578706972656400000000000000000000000081525060200191505060405180910390fd5b60038060048111156106d957fe5b600660009054906101000a900460ff1660048111156106f457fe5b1415151561070157600080fd5b600480600481111561070f57fe5b600660009054906101000a900460ff16600481111561072a57fe5b1415151561073757600080fd5b3073ffffffffffffffffffffffffffffffffffffffff16319550600454861061076257600454610764565b855b9450600260009054906101000a900473ffffffffffffffffffffffffffffffffffffffff1673ffffffffffffffffffffffffffffffffffffffff166108fc869081150290604051600060405180830381858888f193505050501580156107ce573d6000803e3d6000fd5b506004600660006101000a81548160ff021916908360048111156107ee57fe5b0217905550600160009054906101000a900473ffffffffffffffffffffffffffffffffffffffff1673ffffffffffffffffffffffffffffffffffffffff16600260009054906101000a900473ffffffffffffffffffffffffffffffffffffffff1673ffffffffffffffffffffffffffffffffffffffff166000809054906101000a900473ffffffffffffffffffffffffffffffffffffffff1673ffffffffffffffffffffffffffffffffffffffff167fb7c482f0c0b7ad56e2c7004be448a8ead98a8bbe84675fd80b273563099f8560886040518082815260200191505060405180910390a46000809054906101000a900473ffffffffffffffffffffffffffffffffffffffff1673ffffffffffffffffffffffffffffffffffffffff16ff5b6000809054906101000a900473ffffffffffffffffffffffffffffffffffffffff168073ffffffffffffffffffffffffffffffffffffffff163373ffffffffffffffffffffffffffffffffffffffff1614151561096a57600080fd5b60035480421015156109e4576040517f08c379a00000000000000000000000000000000000000000000000000000000081526004018080602001828103825260108152602001807f436f6e747261637420657870697265640000000000000000000000000000000081525060200191505060405180910390fd5b60028060048111156109f257fe5b600660009054906101000a900460ff166004811115610a0d57fe5b141515610a1957600080fd5b83600781600019169055506003600660006101000a81548160ff02191690836004811115610a4357fe5b0217905550610a50610e42565b600160009054906101000a900473ffffffffffffffffffffffffffffffffffffffff1673ffffffffffffffffffffffffffffffffffffffff16600260009054906101000a900473ffffffffffffffffffffffffffffffffffffffff1673ffffffffffffffffffffffffffffffffffffffff166000809054906101000a900473ffffffffffffffffffffffffffffffffffffffff1673ffffffffffffffffffffffffffffffffffffffff167f4906774def8da39710f86a470f7bfc2e68eb429f64b2090cff63e68c943259fd60075460405180826000191660001916815260200191505060405180910390a450505050565b60055481565b600260149054906101000a900461ffff1681565b60045481565b6000600260009054906101000a900473ffffffffffffffffffffffffffffffffffffffff168073ffffffffffffffffffffffffffffffffffffffff163373ffffffffffffffffffffffffffffffffffffffff16141515610bc057600080fd5b6003806004811115610bce57fe5b600660009054906101000a900460ff166004811115610be957fe5b141515610bf557600080fd5b6007549250505090565b600660009054906101000a900460ff1681565b6000809054906101000a900473ffffffffffffffffffffffffffffffffffffffff168073ffffffffffffffffffffffffffffffffffffffff163373ffffffffffffffffffffffffffffffffffffffff16141515610c6e57600080fd5b6003548042101515610ce8576040517f08c379a00000000000000000000000000000000000000000000000000000000081526004018080602001828103825260108152602001807f436f6e747261637420657870697265640000000000000000000000000000000081525060200191505060405180910390fd5b6001806004811115610cf657fe5b600660009054906101000a900460ff166004811115610d1157fe5b141515610d1d57600080fd5b6002600660006101000a81548160ff02191690836004811115610d3c57fe5b0217905550600160009054906101000a900473ffffffffffffffffffffffffffffffffffffffff1673ffffffffffffffffffffffffffffffffffffffff16600260009054906101000a900473ffffffffffffffffffffffffffffffffffffffff1673ffffffffffffffffffffffffffffffffffffffff166000809054906101000a900473ffffffffffffffffffffffffffffffffffffffff1673ffffffffffffffffffffffffffffffffffffffff167fe7ccbdddf2d84fab545fb1aad35fd684ef7cce1df6df25facfb32fe3de037f1d60405160405180910390a4505050565b600160009054906101000a900473ffffffffffffffffffffffffffffffffffffffff1681565b6003806004811115610e5057fe5b600660009054906101000a900460ff166004811115610e6b57fe5b141515610e7757600080fd5b60001515600860009054906101000a900460ff161515141515610e9957600080fd5b6001600860006101000a81548160ff021916908315150217905550600160009054906101000a900473ffffffffffffffffffffffffffffffffffffffff1673ffffffffffffffffffffffffffffffffffffffff166108fc6005549081150290604051600060405180830381858888f19350505050158015610f1e573d6000803e3d6000fd5b506000809054906101000a900473ffffffffffffffffffffffffffffffffffffffff1673ffffffffffffffffffffffffffffffffffffffff166108fc3073ffffffffffffffffffffffffffffffffffffffff16319081150290604051600060405180830381858888f19350505050158015610f9d573d6000803e3d6000fd5b50505600a165627a7a7230582048a8ab4397e9be7adbe7eaa778c9139221c542b4e444b181d6602cc09cd093a80029a165627a7a72305820669c0b71eaa982020a68d9cefa96b2c13f23a45cd55a4d44ba1e59b91531dcad0029",
  "source": "pragma solidity ^0.4.24;\n\nimport './Util.sol';\nimport './Commission.sol';\n\ncontract Agent is Stoppable, Mortal {\n\n  address public artist;\n  uint ratePP; // artist's rate per pixel e.g. 50000000000\n  uint public duration = 5 minutes; // contract time duration\n  uint8 private commissionPct = 30;\n  mapping (address => Commission[]) commissions;\n\n  event CommissionCreated(address commission);\n\n  function setArtist(address _artist, uint _ratePP) public onlyOwner {\n    artist = _artist;\n    ratePP = _ratePP;\n  }\n\n  function setCommissionPct(uint8 pct) public onlyOwner {\n    require(pct <= 100);\n    commissionPct = pct;\n  }\n\n  function getCommissionPct() public view onlyOwner returns(uint8) {\n    return commissionPct;\n  }\n\n  function setContractDuration(uint _duration) public onlyOwner {\n    duration = _duration;\n  }\n  \n  function getQuote(uint16 width, uint16 height) public view returns(uint) {\n    return width * height * ratePP; \n  }\n\n  function commissionArt(uint16 width, uint16 height) public payable returns(address) {\n    require(artist != 0);\n    uint price = getQuote(width, height);\n    uint cut = price * commissionPct / 100;\n    Commission c = new Commission(artist, address(this), msg.sender, width, height, now + duration, price, cut);\n    commissions[msg.sender].push(c);\n    emit CommissionCreated(c);\n    if (msg.value > 0) {\n      c.fund.value(msg.value)();\n    }\n    return c;\n  }\n\n  function getMyCommissions() public view returns(Commission[]) {\n    return getPatronCommissions(msg.sender);\n  }\n\n  function getPatronCommissions(address patron) public view returns(Commission[]) {\n    return commissions[patron];\n  }\n\n  function() public payable {}\n\n}",
  "sourcePath": "/Users/briancort/OneDrive/Personal Development/ConsensysEthereum/reactbox/contracts/Agent.sol",
  "compiler": {
    "name": "solc",
    "version": "0.4.24+commit.e67f0147.Emscripten.clang"
  },
  "schemaVersion": "2.0.1",
  "updatedAt": "2018-08-26T22:33:02.406Z"
}