{
  "contractName": "Agent",
  "abi": [
    {
      "constant": true,
      "inputs": [],
      "name": "duration",
      "outputs": [
        {
          "name": "",
          "type": "uint256"
        }
      ],
      "payable": false,
      "stateMutability": "view",
      "type": "function"
    },
    {
      "constant": false,
      "inputs": [],
      "name": "stopContract",
      "outputs": [],
      "payable": false,
      "stateMutability": "nonpayable",
      "type": "function"
    },
    {
      "constant": false,
      "inputs": [],
      "name": "kill",
      "outputs": [],
      "payable": false,
      "stateMutability": "nonpayable",
      "type": "function"
    },
    {
      "constant": true,
      "inputs": [],
      "name": "artist",
      "outputs": [
        {
          "name": "",
          "type": "address"
        }
      ],
      "payable": false,
      "stateMutability": "view",
      "type": "function"
    },
    {
      "constant": false,
      "inputs": [],
      "name": "resumeContract",
      "outputs": [],
      "payable": false,
      "stateMutability": "nonpayable",
      "type": "function"
    },
    {
      "constant": false,
      "inputs": [],
      "name": "deposit",
      "outputs": [
        {
          "name": "",
          "type": "bool"
        }
      ],
      "payable": true,
      "stateMutability": "payable",
      "type": "function"
    },
    {
      "constant": false,
      "inputs": [],
      "name": "withdrawal",
      "outputs": [],
      "payable": false,
      "stateMutability": "nonpayable",
      "type": "function"
    },
    {
      "payable": true,
      "stateMutability": "payable",
      "type": "fallback"
    },
    {
      "anonymous": false,
      "inputs": [
        {
          "indexed": false,
          "name": "commission",
          "type": "address"
        }
      ],
      "name": "CommissionCreated",
      "type": "event"
    },
    {
      "constant": false,
      "inputs": [
        {
          "name": "_artist",
          "type": "address"
        },
        {
          "name": "_ratePP",
          "type": "uint256"
        }
      ],
      "name": "setArtist",
      "outputs": [],
      "payable": false,
      "stateMutability": "nonpayable",
      "type": "function"
    },
    {
      "constant": false,
      "inputs": [
        {
          "name": "pct",
          "type": "uint8"
        }
      ],
      "name": "setCommissionPct",
      "outputs": [],
      "payable": false,
      "stateMutability": "nonpayable",
      "type": "function"
    },
    {
      "constant": true,
      "inputs": [],
      "name": "getCommissionPct",
      "outputs": [
        {
          "name": "",
          "type": "uint8"
        }
      ],
      "payable": false,
      "stateMutability": "view",
      "type": "function"
    },
    {
      "constant": false,
      "inputs": [
        {
          "name": "_duration",
          "type": "uint256"
        }
      ],
      "name": "setContractDuration",
      "outputs": [],
      "payable": false,
      "stateMutability": "nonpayable",
      "type": "function"
    },
    {
      "constant": true,
      "inputs": [
        {
          "name": "width",
          "type": "uint16"
        },
        {
          "name": "height",
          "type": "uint16"
        }
      ],
      "name": "getQuote",
      "outputs": [
        {
          "name": "",
          "type": "uint256"
        }
      ],
      "payable": false,
      "stateMutability": "view",
      "type": "function"
    },
    {
      "constant": false,
      "inputs": [
        {
          "name": "width",
          "type": "uint16"
        },
        {
          "name": "height",
          "type": "uint16"
        }
      ],
      "name": "commissionArt",
      "outputs": [
        {
          "name": "",
          "type": "address"
        }
      ],
      "payable": false,
      "stateMutability": "nonpayable",
      "type": "function"
    },
    {
      "constant": true,
      "inputs": [],
      "name": "getMyCommissions",
      "outputs": [
        {
          "name": "",
          "type": "address[]"
        }
      ],
      "payable": false,
      "stateMutability": "view",
      "type": "function"
    },
    {
      "constant": true,
      "inputs": [
        {
          "name": "patron",
          "type": "address"
        }
      ],
      "name": "getPatronCommissions",
      "outputs": [
        {
          "name": "",
          "type": "address[]"
        }
      ],
      "payable": false,
      "stateMutability": "view",
      "type": "function"
    }
  ],
  "bytecode": "0x608060405260008060146101000a81548160ff02191690831515021790555061012c600355601e600460006101000a81548160ff021916908360ff160217905550336000806101000a81548173ffffffffffffffffffffffffffffffffffffffff021916908373ffffffffffffffffffffffffffffffffffffffff1602179055506123a08061008f6000396000f3006080604052600436106100db576000357c0100000000000000000000000000000000000000000000000000000000900463ffffffff1680630fb5a6b4146100dd57806312253a6c146101085780631e63548c1461011f5780631f38e142146101b75780632192726b146101e757806326103f1314610214578063291e85521461028057806341c0e1b5146102d357806343bc1612146102ea5780636e0d56de1461034157806377a8d482146103c0578063c4bc5da51461040d578063d0e30db014610424578063d4e9329214610446578063dc01a9391461045d575b005b3480156100e957600080fd5b506100f261048e565b6040518082815260200191505060405180910390f35b34801561011457600080fd5b5061011d610494565b005b34801561012b57600080fd5b50610160600480360381019080803573ffffffffffffffffffffffffffffffffffffffff16906020019092919050505061059b565b6040518080602001828103825283818151815260200191508051906020019060200280838360005b838110156101a3578082015181840152602081019050610188565b505050509050019250505060405180910390f35b3480156101c357600080fd5b506101e5600480360381019080803560ff169060200190929190505050610668565b005b3480156101f357600080fd5b5061021260048036038101908080359060200190929190505050610783565b005b34801561022057600080fd5b50610229610877565b6040518080602001828103825283818151815260200191508051906020019060200280838360005b8381101561026c578082015181840152602081019050610251565b505050509050019250505060405180910390f35b34801561028c57600080fd5b506102bd600480360381019080803561ffff169060200190929190803561ffff169060200190929190505050610887565b6040518082815260200191505060405180910390f35b3480156102df57600080fd5b506102e861089c565b005b3480156102f657600080fd5b506102ff6109c0565b604051808273ffffffffffffffffffffffffffffffffffffffff1673ffffffffffffffffffffffffffffffffffffffff16815260200191505060405180910390f35b34801561034d57600080fd5b5061037e600480360381019080803561ffff169060200190929190803561ffff1690602001909291905050506109e6565b604051808273ffffffffffffffffffffffffffffffffffffffff1673ffffffffffffffffffffffffffffffffffffffff16815260200191505060405180910390f35b3480156103cc57600080fd5b5061040b600480360381019080803573ffffffffffffffffffffffffffffffffffffffff16906020019092919080359060200190929190505050610c51565b005b34801561041957600080fd5b50610422610d87565b005b61042c610e8d565b604051808215151515815260200191505060405180910390f35b34801561045257600080fd5b5061045b610eb0565b005b34801561046957600080fd5b50610472611036565b604051808260ff1660ff16815260200191505060405180910390f35b60035481565b6000809054906101000a900473ffffffffffffffffffffffffffffffffffffffff1673ffffffffffffffffffffffffffffffffffffffff163373ffffffffffffffffffffffffffffffffffffffff1614151561057e576040517f08c379a00000000000000000000000000000000000000000000000000000000081526004018080602001828103825260218152602001807f4f6e6c79206f776e65722063616e2063616c6c20746869732066756e6374696f81526020017f6e0000000000000000000000000000000000000000000000000000000000000081525060400191505060405180910390fd5b6001600060146101000a81548160ff021916908315150217905550565b6060600560008373ffffffffffffffffffffffffffffffffffffffff1673ffffffffffffffffffffffffffffffffffffffff16815260200190815260200160002080548060200260200160405190810160405280929190818152602001828054801561065c57602002820191906000526020600020905b8160009054906101000a900473ffffffffffffffffffffffffffffffffffffffff1673ffffffffffffffffffffffffffffffffffffffff1681526020019060010190808311610612575b50505050509050919050565b6000809054906101000a900473ffffffffffffffffffffffffffffffffffffffff1673ffffffffffffffffffffffffffffffffffffffff163373ffffffffffffffffffffffffffffffffffffffff16141515610752576040517f08c379a00000000000000000000000000000000000000000000000000000000081526004018080602001828103825260218152602001807f4f6e6c79206f776e65722063616e2063616c6c20746869732066756e6374696f81526020017f6e0000000000000000000000000000000000000000000000000000000000000081525060400191505060405180910390fd5b60648160ff161115151561076557600080fd5b80600460006101000a81548160ff021916908360ff16021790555050565b6000809054906101000a900473ffffffffffffffffffffffffffffffffffffffff1673ffffffffffffffffffffffffffffffffffffffff163373ffffffffffffffffffffffffffffffffffffffff1614151561086d576040517f08c379a00000000000000000000000000000000000000000000000000000000081526004018080602001828103825260218152602001807f4f6e6c79206f776e65722063616e2063616c6c20746869732066756e6374696f81526020017f6e0000000000000000000000000000000000000000000000000000000000000081525060400191505060405180910390fd5b8060038190555050565b60606108823361059b565b905090565b600060025482840261ffff1602905092915050565b6000809054906101000a900473ffffffffffffffffffffffffffffffffffffffff1673ffffffffffffffffffffffffffffffffffffffff163373ffffffffffffffffffffffffffffffffffffffff16141515610986576040517f08c379a00000000000000000000000000000000000000000000000000000000081526004018080602001828103825260218152602001807f4f6e6c79206f776e65722063616e2063616c6c20746869732066756e6374696f81526020017f6e0000000000000000000000000000000000000000000000000000000000000081525060400191505060405180910390fd5b6000809054906101000a900473ffffffffffffffffffffffffffffffffffffffff1673ffffffffffffffffffffffffffffffffffffffff16ff5b600160009054906101000a900473ffffffffffffffffffffffffffffffffffffffff1681565b6000806000806109f68686610887565b92506064600460009054906101000a900460ff1660ff168402811515610a1857fe5b049150600160009054906101000a900473ffffffffffffffffffffffffffffffffffffffff163033888860035442018888610a51611137565b808973ffffffffffffffffffffffffffffffffffffffff1673ffffffffffffffffffffffffffffffffffffffff1681526020018873ffffffffffffffffffffffffffffffffffffffff1673ffffffffffffffffffffffffffffffffffffffff1681526020018773ffffffffffffffffffffffffffffffffffffffff1673ffffffffffffffffffffffffffffffffffffffff1681526020018661ffff1661ffff1681526020018561ffff1661ffff16815260200184815260200183815260200182815260200198505050505050505050604051809103906000f080158015610b3c573d6000803e3d6000fd5b509050600560003373ffffffffffffffffffffffffffffffffffffffff1673ffffffffffffffffffffffffffffffffffffffff1681526020019081526020016000208190806001815401808255809150509060018203906000526020600020016000909192909190916101000a81548173ffffffffffffffffffffffffffffffffffffffff021916908373ffffffffffffffffffffffffffffffffffffffff160217905550507f0cf53f1fe3628b4ec201dbe641dde5eba321661f303fea3bfba3669bdbb0258681604051808273ffffffffffffffffffffffffffffffffffffffff1673ffffffffffffffffffffffffffffffffffffffff16815260200191505060405180910390a180935050505092915050565b6000809054906101000a900473ffffffffffffffffffffffffffffffffffffffff1673ffffffffffffffffffffffffffffffffffffffff163373ffffffffffffffffffffffffffffffffffffffff16141515610d3b576040517f08c379a00000000000000000000000000000000000000000000000000000000081526004018080602001828103825260218152602001807f4f6e6c79206f776e65722063616e2063616c6c20746869732066756e6374696f81526020017f6e0000000000000000000000000000000000000000000000000000000000000081525060400191505060405180910390fd5b81600160006101000a81548173ffffffffffffffffffffffffffffffffffffffff021916908373ffffffffffffffffffffffffffffffffffffffff160217905550806002819055505050565b6000809054906101000a900473ffffffffffffffffffffffffffffffffffffffff1673ffffffffffffffffffffffffffffffffffffffff163373ffffffffffffffffffffffffffffffffffffffff16141515610e71576040517f08c379a00000000000000000000000000000000000000000000000000000000081526004018080602001828103825260218152602001807f4f6e6c79206f776e65722063616e2063616c6c20746869732066756e6374696f81526020017f6e0000000000000000000000000000000000000000000000000000000000000081525060400191505060405180910390fd5b60008060146101000a81548160ff021916908315150217905550565b60008060149054906101000a900460ff161515610ea957600080fd5b6001905090565b600060149054906101000a900460ff161515610ecb57600080fd5b6000809054906101000a900473ffffffffffffffffffffffffffffffffffffffff1673ffffffffffffffffffffffffffffffffffffffff163373ffffffffffffffffffffffffffffffffffffffff16141515610fb5576040517f08c379a00000000000000000000000000000000000000000000000000000000081526004018080602001828103825260218152602001807f4f6e6c79206f776e65722063616e2063616c6c20746869732066756e6374696f81526020017f6e0000000000000000000000000000000000000000000000000000000000000081525060400191505060405180910390fd5b6000809054906101000a900473ffffffffffffffffffffffffffffffffffffffff1673ffffffffffffffffffffffffffffffffffffffff166108fc3073ffffffffffffffffffffffffffffffffffffffff16319081150290604051600060405180830381858888f19350505050158015611033573d6000803e3d6000fd5b50565b60008060009054906101000a900473ffffffffffffffffffffffffffffffffffffffff1673ffffffffffffffffffffffffffffffffffffffff163373ffffffffffffffffffffffffffffffffffffffff16141515611122576040517f08c379a00000000000000000000000000000000000000000000000000000000081526004018080602001828103825260218152602001807f4f6e6c79206f776e65722063616e2063616c6c20746869732066756e6374696f81526020017f6e0000000000000000000000000000000000000000000000000000000000000081525060400191505060405180910390fd5b600460009054906101000a900460ff16905090565b60405161122d8061114883390190560060806040526000600860006101000a81548160ff02191690831515021790555034801561002b57600080fd5b506040516101008061122d8339810180604052810190808051906020019092919080519060200190929190805190602001909291908051906020019092919080519060200190929190805190602001909291908051906020019092919080519060200190929190505050876000806101000a81548173ffffffffffffffffffffffffffffffffffffffff021916908373ffffffffffffffffffffffffffffffffffffffff16021790555085600260006101000a81548173ffffffffffffffffffffffffffffffffffffffff021916908373ffffffffffffffffffffffffffffffffffffffff16021790555086600160006101000a81548173ffffffffffffffffffffffffffffffffffffffff021916908373ffffffffffffffffffffffffffffffffffffffff16021790555084600260146101000a81548161ffff021916908361ffff16021790555083600260166101000a81548161ffff021916908361ffff1602179055508260038190555081600481905550806005819055506000600660006101000a81548160ff021916908360048111156101c557fe5b0217905550600160009054906101000a900473ffffffffffffffffffffffffffffffffffffffff1673ffffffffffffffffffffffffffffffffffffffff16600260009054906101000a900473ffffffffffffffffffffffffffffffffffffffff1673ffffffffffffffffffffffffffffffffffffffff166000809054906101000a900473ffffffffffffffffffffffffffffffffffffffff1673ffffffffffffffffffffffffffffffffffffffff167f454b0172f64812df0cd504c2bd7df7aab8ff328a54d946b4bd0fa7c527adf9cc60405160405180910390a45050505050505050610f76806102b76000396000f3006080604052600436106100c5576000357c0100000000000000000000000000000000000000000000000000000000900463ffffffff1680630ba32b27146100d05780630ef267431461012757806329dcb0cf1461015a57806343bc161214610185578063590e1ae3146101dc57806363c06101146101f357806380e65927146102245780639ededf771461024f578063a035b1fe14610282578063b51cb82a146102ad578063b60d4288146102e0578063f59d6b9714610302578063f5ff5c7614610319575b6100cd610370565b50005b3480156100dc57600080fd5b506100e5610547565b604051808273ffffffffffffffffffffffffffffffffffffffff1673ffffffffffffffffffffffffffffffffffffffff16815260200191505060405180910390f35b34801561013357600080fd5b5061013c61056d565b604051808261ffff1661ffff16815260200191505060405180910390f35b34801561016657600080fd5b5061016f610581565b6040518082815260200191505060405180910390f35b34801561019157600080fd5b5061019a610587565b604051808273ffffffffffffffffffffffffffffffffffffffff1673ffffffffffffffffffffffffffffffffffffffff16815260200191505060405180910390f35b3480156101e857600080fd5b506101f16105ac565b005b3480156101ff57600080fd5b5061022260048036038101908080356000191690602001909291905050506108ca565b005b34801561023057600080fd5b50610239610afd565b6040518082815260200191505060405180910390f35b34801561025b57600080fd5b50610264610b03565b604051808261ffff1661ffff16815260200191505060405180910390f35b34801561028e57600080fd5b50610297610b17565b6040518082815260200191505060405180910390f35b3480156102b957600080fd5b506102c2610b1d565b60405180826000191660001916815260200191505060405180910390f35b6102e8610370565b604051808215151515815260200191505060405180910390f35b34801561030e57600080fd5b50610317610bbb565b005b34801561032557600080fd5b5061032e610dc5565b604051808273ffffffffffffffffffffffffffffffffffffffff1673ffffffffffffffffffffffffffffffffffffffff16815260200191505060405180910390f35b600060035480421015156103ec576040517f08c379a00000000000000000000000000000000000000000000000000000000081526004018080602001828103825260108152602001807f436f6e747261637420657870697265640000000000000000000000000000000081525060200191505060405180910390fd5b60008060048111156103fa57fe5b600660009054906101000a900460ff16600481111561041557fe5b14151561042157600080fd5b6004543073ffffffffffffffffffffffffffffffffffffffff163110151561053e576001600660006101000a81548160ff0219169083600481111561046257fe5b0217905550600160009054906101000a900473ffffffffffffffffffffffffffffffffffffffff1673ffffffffffffffffffffffffffffffffffffffff16600260009054906101000a900473ffffffffffffffffffffffffffffffffffffffff1673ffffffffffffffffffffffffffffffffffffffff166000809054906101000a900473ffffffffffffffffffffffffffffffffffffffff1673ffffffffffffffffffffffffffffffffffffffff167fc6389bf577814d24982845d646dbf66fcabfa7783b6948d7d577bd1dd14c807d60405160405180910390a45b60019250505090565b600260009054906101000a900473ffffffffffffffffffffffffffffffffffffffff1681565b600260169054906101000a900461ffff1681565b60035481565b6000809054906101000a900473ffffffffffffffffffffffffffffffffffffffff1681565b600080600260009054906101000a900473ffffffffffffffffffffffffffffffffffffffff168073ffffffffffffffffffffffffffffffffffffffff163373ffffffffffffffffffffffffffffffffffffffff1614151561060c57600080fd5b600354804210151515610687576040517f08c379a00000000000000000000000000000000000000000000000000000000081526004018080602001828103825260148152602001807f436f6e7472616374206e6f74206578706972656400000000000000000000000081525060200191505060405180910390fd5b600380600481111561069557fe5b600660009054906101000a900460ff1660048111156106b057fe5b141515156106bd57600080fd5b60048060048111156106cb57fe5b600660009054906101000a900460ff1660048111156106e657fe5b141515156106f357600080fd5b3073ffffffffffffffffffffffffffffffffffffffff16319550600454861061071e57600454610720565b855b9450600260009054906101000a900473ffffffffffffffffffffffffffffffffffffffff1673ffffffffffffffffffffffffffffffffffffffff166108fc869081150290604051600060405180830381858888f1935050505015801561078a573d6000803e3d6000fd5b506004600660006101000a81548160ff021916908360048111156107aa57fe5b0217905550600160009054906101000a900473ffffffffffffffffffffffffffffffffffffffff1673ffffffffffffffffffffffffffffffffffffffff16600260009054906101000a900473ffffffffffffffffffffffffffffffffffffffff1673ffffffffffffffffffffffffffffffffffffffff166000809054906101000a900473ffffffffffffffffffffffffffffffffffffffff1673ffffffffffffffffffffffffffffffffffffffff167fb7c482f0c0b7ad56e2c7004be448a8ead98a8bbe84675fd80b273563099f8560886040518082815260200191505060405180910390a46000809054906101000a900473ffffffffffffffffffffffffffffffffffffffff1673ffffffffffffffffffffffffffffffffffffffff16ff5b6000809054906101000a900473ffffffffffffffffffffffffffffffffffffffff168073ffffffffffffffffffffffffffffffffffffffff163373ffffffffffffffffffffffffffffffffffffffff1614151561092657600080fd5b60035480421015156109a0576040517f08c379a00000000000000000000000000000000000000000000000000000000081526004018080602001828103825260108152602001807f436f6e747261637420657870697265640000000000000000000000000000000081525060200191505060405180910390fd5b60028060048111156109ae57fe5b600660009054906101000a900460ff1660048111156109c957fe5b1415156109d557600080fd5b83600781600019169055506003600660006101000a81548160ff021916908360048111156109ff57fe5b0217905550610a0c610deb565b600160009054906101000a900473ffffffffffffffffffffffffffffffffffffffff1673ffffffffffffffffffffffffffffffffffffffff16600260009054906101000a900473ffffffffffffffffffffffffffffffffffffffff1673ffffffffffffffffffffffffffffffffffffffff166000809054906101000a900473ffffffffffffffffffffffffffffffffffffffff1673ffffffffffffffffffffffffffffffffffffffff167f4906774def8da39710f86a470f7bfc2e68eb429f64b2090cff63e68c943259fd60075460405180826000191660001916815260200191505060405180910390a450505050565b60055481565b600260149054906101000a900461ffff1681565b60045481565b6000600260009054906101000a900473ffffffffffffffffffffffffffffffffffffffff168073ffffffffffffffffffffffffffffffffffffffff163373ffffffffffffffffffffffffffffffffffffffff16141515610b7c57600080fd5b6003806004811115610b8a57fe5b600660009054906101000a900460ff166004811115610ba557fe5b141515610bb157600080fd5b6007549250505090565b6000809054906101000a900473ffffffffffffffffffffffffffffffffffffffff168073ffffffffffffffffffffffffffffffffffffffff163373ffffffffffffffffffffffffffffffffffffffff16141515610c1757600080fd5b6003548042101515610c91576040517f08c379a00000000000000000000000000000000000000000000000000000000081526004018080602001828103825260108152602001807f436f6e747261637420657870697265640000000000000000000000000000000081525060200191505060405180910390fd5b6001806004811115610c9f57fe5b600660009054906101000a900460ff166004811115610cba57fe5b141515610cc657600080fd5b6002600660006101000a81548160ff02191690836004811115610ce557fe5b0217905550600160009054906101000a900473ffffffffffffffffffffffffffffffffffffffff1673ffffffffffffffffffffffffffffffffffffffff16600260009054906101000a900473ffffffffffffffffffffffffffffffffffffffff1673ffffffffffffffffffffffffffffffffffffffff166000809054906101000a900473ffffffffffffffffffffffffffffffffffffffff1673ffffffffffffffffffffffffffffffffffffffff167fe7ccbdddf2d84fab545fb1aad35fd684ef7cce1df6df25facfb32fe3de037f1d60405160405180910390a4505050565b600160009054906101000a900473ffffffffffffffffffffffffffffffffffffffff1681565b6003806004811115610df957fe5b600660009054906101000a900460ff166004811115610e1457fe5b141515610e2057600080fd5b60001515600860009054906101000a900460ff161515141515610e4257600080fd5b6001600860006101000a81548160ff021916908315150217905550600160009054906101000a900473ffffffffffffffffffffffffffffffffffffffff1673ffffffffffffffffffffffffffffffffffffffff166108fc6005549081150290604051600060405180830381858888f19350505050158015610ec7573d6000803e3d6000fd5b506000809054906101000a900473ffffffffffffffffffffffffffffffffffffffff1673ffffffffffffffffffffffffffffffffffffffff166108fc3073ffffffffffffffffffffffffffffffffffffffff16319081150290604051600060405180830381858888f19350505050158015610f46573d6000803e3d6000fd5b50505600a165627a7a723058206b56ccbf449607aa58b4307665cea6685fa88ed476fbbd2f1796d07ffaf232f10029a165627a7a723058204e30755078488ecc05d4286bdc1a756dc7fbddee5c804c3f1971a8bde505e8e90029",
  "source": "pragma solidity ^0.4.24;\n\nimport './Util.sol';\nimport './Commission.sol';\n\ncontract Agent is Stoppable, Mortal {\n\n  address public artist;\n  uint ratePP; // artist's rate per pixel e.g. 50000000000\n  uint public duration = 5 minutes; // contract time duration\n  uint8 private commissionPct = 30;\n  mapping (address => Commission[]) commissions;\n\n  event CommissionCreated(address commission);\n\n  function setArtist(address _artist, uint _ratePP) public onlyOwner {\n    artist = _artist;\n    ratePP = _ratePP;\n  }\n\n  function setCommissionPct(uint8 pct) public onlyOwner {\n    require(pct <= 100);\n    commissionPct = pct;\n  }\n\n  function getCommissionPct() public view onlyOwner returns(uint8) {\n    return commissionPct;\n  }\n\n  function setContractDuration(uint _duration) public onlyOwner {\n    duration = _duration;\n  }\n  \n  function getQuote(uint16 width, uint16 height) public view returns(uint) {\n    return width * height * ratePP; \n  }\n\n  function commissionArt(uint16 width, uint16 height) public returns(address) {\n    uint price = getQuote(width, height);\n    uint cut = price * commissionPct / 100;\n    Commission c = new Commission(artist, address(this), msg.sender, width, height, now + duration, price, cut);\n    commissions[msg.sender].push(c);\n    emit CommissionCreated(c);\n    return c;\n  }\n\n  function getMyCommissions() public view returns(Commission[]) {\n    return getPatronCommissions(msg.sender);\n  }\n\n  function getPatronCommissions(address patron) public view returns(Commission[]) {\n    return commissions[patron];\n  }\n\n  function() public payable {}\n\n}",
  "sourcePath": "/Users/briancort/OneDrive/Personal Development/ConsensysEthereum/reactbox/contracts/Agent.sol",
  "compiler": {
    "name": "solc",
    "version": "0.4.24+commit.e67f0147.Emscripten.clang"
  },
  "schemaVersion": "2.0.1",
  "updatedAt": "2018-08-23T03:09:26.641Z"
}