{
  "contractName": "Artist",
  "abi": [
    {
      "constant": false,
      "inputs": [],
      "name": "kill",
      "outputs": [],
      "payable": false,
      "stateMutability": "nonpayable",
      "type": "function"
    },
    {
      "constant": true,
      "inputs": [],
      "name": "owner",
      "outputs": [
        {
          "name": "",
          "type": "address"
        }
      ],
      "payable": false,
      "stateMutability": "view",
      "type": "function"
    },
    {
      "anonymous": false,
      "inputs": [
        {
          "indexed": false,
          "name": "commission",
          "type": "address"
        }
      ],
      "name": "Commissioned",
      "type": "event"
    },
    {
      "constant": false,
      "inputs": [
        {
          "name": "c",
          "type": "address"
        }
      ],
      "name": "commission",
      "outputs": [],
      "payable": false,
      "stateMutability": "nonpayable",
      "type": "function"
    }
  ],
  "bytecode": "0x6080604052336000806101000a81548173ffffffffffffffffffffffffffffffffffffffff021916908373ffffffffffffffffffffffffffffffffffffffff16021790555061052d806100536000396000f300608060405260043610610057576000357c0100000000000000000000000000000000000000000000000000000000900463ffffffff16806341c0e1b51461005c5780638da5cb5b14610073578063a0189c9d146100ca575b600080fd5b34801561006857600080fd5b5061007161010d565b005b34801561007f57600080fd5b50610088610231565b604051808273ffffffffffffffffffffffffffffffffffffffff1673ffffffffffffffffffffffffffffffffffffffff16815260200191505060405180910390f35b3480156100d657600080fd5b5061010b600480360381019080803573ffffffffffffffffffffffffffffffffffffffff169060200190929190505050610256565b005b6000809054906101000a900473ffffffffffffffffffffffffffffffffffffffff1673ffffffffffffffffffffffffffffffffffffffff163373ffffffffffffffffffffffffffffffffffffffff161415156101f7576040517f08c379a00000000000000000000000000000000000000000000000000000000081526004018080602001828103825260218152602001807f4f6e6c79206f776e65722063616e2063616c6c20746869732066756e6374696f81526020017f6e0000000000000000000000000000000000000000000000000000000000000081525060400191505060405180910390fd5b6000809054906101000a900473ffffffffffffffffffffffffffffffffffffffff1673ffffffffffffffffffffffffffffffffffffffff16ff5b6000809054906101000a900473ffffffffffffffffffffffffffffffffffffffff1681565b61026a8160016102d090919063ffffffff16565b7f87b8886ac2b01f3c79fc6abdfb0bdb3db8b1218043ea63372cd7a5b94b6b579681604051808273ffffffffffffffffffffffffffffffffffffffff1673ffffffffffffffffffffffffffffffffffffffff16815260200191505060405180910390a150565b600081428460020154604051602001808473ffffffffffffffffffffffffffffffffffffffff1673ffffffffffffffffffffffffffffffffffffffff166c01000000000000000000000000028152601401838152602001826000191660001916815260200193505050506040516020818303038152906040526040518082805190602001908083835b60208310151561037e5780518252602082019150602081019050602083039250610359565b6001836020036101000a038019825116818451168082178552505050505050905001915050604051809103902090506060604051908101604052808373ffffffffffffffffffffffffffffffffffffffff1681526020018460020154600019168152602001600060010260001916815250836000016000836000191660001916815260200190815260200160002060008201518160000160006101000a81548173ffffffffffffffffffffffffffffffffffffffff021916908373ffffffffffffffffffffffffffffffffffffffff160217905550602082015181600101906000191690556040820151816002019060001916905590505060006001028360020154600019161415156104b9578083600001600085600201546000191660001916815260200190815260200160002060020181600019169055505b80836002018160001916905550600060010283600101546000191614156104e857808360010181600019169055505b82600301600081548092919060010191905055505050505600a165627a7a72305820cddd34a353a5bcb6259ffd1012bac1ae4e0f912bd07266984f563a484ca80c2f0029",
  "source": "pragma solidity ^0.4.24;\n\nimport './Util.sol';\nimport './LinkedAddressList.sol';\nimport './Commission.sol';\n\n/** \n * Library Demo\n * \n * Originally the app was going to use a contract for the Artist.\n * I wrote a dequeue (LinkedAddressList) library to use. This contract demonstrates its use.\n * The library has unit tests that demonstrate it's use. See tests/TestLinkedAddressList.sol.\n */\ncontract Artist is Mortal {\n\n  using LinkedAddressList for LinkedAddressList.List;\n\n  LinkedAddressList.List backlog;\n  LinkedAddressList.List completed;\n\n  event Commissioned(Commission commission);\n\n  function nextJob() internal constant returns(Commission) {\n    return Commission(backlog.getHeadData());\n  }\n\n  function commission(Commission c) public {\n    backlog.addLast(c);\n    emit Commissioned(c);\n  }\n  \n\n\n\n}",
  "sourcePath": "/Users/briancort/OneDrive/Personal Development/ConsensysEthereum/finalProjectRedo/contracts/LibraryDemo.sol",
  "compiler": {
    "name": "solc",
    "version": "0.4.24+commit.e67f0147.Emscripten.clang"
  },
  "schemaVersion": "2.0.1",
  "updatedAt": "2018-11-18T18:56:34.238Z"
}