{
  "contractName": "Artist",
  "abi": [
    {
      "constant": false,
      "inputs": [],
      "name": "kill",
      "outputs": [],
      "payable": false,
      "stateMutability": "nonpayable",
      "type": "function"
    },
    {
      "anonymous": false,
      "inputs": [
        {
          "indexed": false,
          "name": "commission",
          "type": "address"
        }
      ],
      "name": "Commissioned",
      "type": "event"
    },
    {
      "constant": false,
      "inputs": [
        {
          "name": "c",
          "type": "address"
        }
      ],
      "name": "commission",
      "outputs": [],
      "payable": false,
      "stateMutability": "nonpayable",
      "type": "function"
    }
  ],
  "bytecode": "0x6080604052336000806101000a81548173ffffffffffffffffffffffffffffffffffffffff021916908373ffffffffffffffffffffffffffffffffffffffff1602179055506104a6806100536000396000f30060806040526004361061004c576000357c0100000000000000000000000000000000000000000000000000000000900463ffffffff16806341c0e1b514610051578063a0189c9d14610068575b600080fd5b34801561005d57600080fd5b506100666100ab565b005b34801561007457600080fd5b506100a9600480360381019080803573ffffffffffffffffffffffffffffffffffffffff1690602001909291905050506101cf565b005b6000809054906101000a900473ffffffffffffffffffffffffffffffffffffffff1673ffffffffffffffffffffffffffffffffffffffff163373ffffffffffffffffffffffffffffffffffffffff16141515610195576040517f08c379a00000000000000000000000000000000000000000000000000000000081526004018080602001828103825260218152602001807f4f6e6c79206f776e65722063616e2063616c6c20746869732066756e6374696f81526020017f6e0000000000000000000000000000000000000000000000000000000000000081525060400191505060405180910390fd5b6000809054906101000a900473ffffffffffffffffffffffffffffffffffffffff1673ffffffffffffffffffffffffffffffffffffffff16ff5b6101e381600161024990919063ffffffff16565b7f87b8886ac2b01f3c79fc6abdfb0bdb3db8b1218043ea63372cd7a5b94b6b579681604051808273ffffffffffffffffffffffffffffffffffffffff1673ffffffffffffffffffffffffffffffffffffffff16815260200191505060405180910390a150565b600081428460020154604051602001808473ffffffffffffffffffffffffffffffffffffffff1673ffffffffffffffffffffffffffffffffffffffff166c01000000000000000000000000028152601401838152602001826000191660001916815260200193505050506040516020818303038152906040526040518082805190602001908083835b6020831015156102f757805182526020820191506020810190506020830392506102d2565b6001836020036101000a038019825116818451168082178552505050505050905001915050604051809103902090506060604051908101604052808373ffffffffffffffffffffffffffffffffffffffff1681526020018460020154600019168152602001600060010260001916815250836000016000836000191660001916815260200190815260200160002060008201518160000160006101000a81548173ffffffffffffffffffffffffffffffffffffffff021916908373ffffffffffffffffffffffffffffffffffffffff16021790555060208201518160010190600019169055604082015181600201906000191690559050506000600102836002015460001916141515610432578083600001600085600201546000191660001916815260200190815260200160002060020181600019169055505b808360020181600019169055506000600102836001015460001916141561046157808360010181600019169055505b82600301600081548092919060010191905055505050505600a165627a7a723058206b3a20cc4b5cda774d2231ec872ca34efbc8f8af7798c4063b9b269ae6206cca0029",
  "source": "pragma solidity ^0.4.24;\n\nimport './Util.sol';\nimport './LinkedAddressList.sol';\nimport './Commission.sol';\n\ncontract Artist is Mortal {\n\n  using LinkedAddressList for LinkedAddressList.List;\n\n  LinkedAddressList.List backlog;\n  LinkedAddressList.List completed;\n\n  event Commissioned(Commission commission);\n\n  function nextJob() internal constant returns(Commission) {\n    return Commission(backlog.getHeadData());\n  }\n\n  function commission(Commission c) public {\n    backlog.addLast(c);\n    emit Commissioned(c);\n  }\n  \n\n\n\n}",
  "sourcePath": "/Users/briancort/OneDrive/Personal Development/ConsensysEthereum/reactbox/contracts/Artist.sol",
  "compiler": {
    "name": "solc",
    "version": "0.4.24+commit.e67f0147.Emscripten.clang"
  },
  "schemaVersion": "2.0.1",
  "updatedAt": "2018-08-26T03:57:18.344Z"
}