{
  "contractName": "Commission",
  "abi": [
    {
      "constant": true,
      "inputs": [],
      "name": "patron",
      "outputs": [
        {
          "name": "",
          "type": "address"
        }
      ],
      "payable": false,
      "stateMutability": "view",
      "type": "function"
    },
    {
      "constant": true,
      "inputs": [],
      "name": "height",
      "outputs": [
        {
          "name": "",
          "type": "uint16"
        }
      ],
      "payable": false,
      "stateMutability": "view",
      "type": "function"
    },
    {
      "constant": true,
      "inputs": [],
      "name": "deadline",
      "outputs": [
        {
          "name": "",
          "type": "uint256"
        }
      ],
      "payable": false,
      "stateMutability": "view",
      "type": "function"
    },
    {
      "constant": true,
      "inputs": [],
      "name": "artist",
      "outputs": [
        {
          "name": "",
          "type": "address"
        }
      ],
      "payable": false,
      "stateMutability": "view",
      "type": "function"
    },
    {
      "constant": true,
      "inputs": [],
      "name": "agentCut",
      "outputs": [
        {
          "name": "",
          "type": "uint256"
        }
      ],
      "payable": false,
      "stateMutability": "view",
      "type": "function"
    },
    {
      "constant": true,
      "inputs": [],
      "name": "width",
      "outputs": [
        {
          "name": "",
          "type": "uint16"
        }
      ],
      "payable": false,
      "stateMutability": "view",
      "type": "function"
    },
    {
      "constant": true,
      "inputs": [],
      "name": "price",
      "outputs": [
        {
          "name": "",
          "type": "uint256"
        }
      ],
      "payable": false,
      "stateMutability": "view",
      "type": "function"
    },
    {
      "constant": true,
      "inputs": [],
      "name": "state",
      "outputs": [
        {
          "name": "",
          "type": "uint8"
        }
      ],
      "payable": false,
      "stateMutability": "view",
      "type": "function"
    },
    {
      "constant": true,
      "inputs": [],
      "name": "agent",
      "outputs": [
        {
          "name": "",
          "type": "address"
        }
      ],
      "payable": false,
      "stateMutability": "view",
      "type": "function"
    },
    {
      "inputs": [
        {
          "name": "_artist",
          "type": "address"
        },
        {
          "name": "_agent",
          "type": "address"
        },
        {
          "name": "_patron",
          "type": "address"
        },
        {
          "name": "_width",
          "type": "uint16"
        },
        {
          "name": "_height",
          "type": "uint16"
        },
        {
          "name": "_deadline",
          "type": "uint256"
        },
        {
          "name": "_price",
          "type": "uint256"
        },
        {
          "name": "_agentCut",
          "type": "uint256"
        }
      ],
      "payable": false,
      "stateMutability": "nonpayable",
      "type": "constructor"
    },
    {
      "payable": true,
      "stateMutability": "payable",
      "type": "fallback"
    },
    {
      "anonymous": false,
      "inputs": [
        {
          "indexed": true,
          "name": "artist",
          "type": "address"
        },
        {
          "indexed": true,
          "name": "patron",
          "type": "address"
        },
        {
          "indexed": true,
          "name": "agent",
          "type": "address"
        }
      ],
      "name": "Created",
      "type": "event"
    },
    {
      "anonymous": false,
      "inputs": [
        {
          "indexed": true,
          "name": "artist",
          "type": "address"
        },
        {
          "indexed": true,
          "name": "patron",
          "type": "address"
        },
        {
          "indexed": true,
          "name": "agent",
          "type": "address"
        }
      ],
      "name": "Funded",
      "type": "event"
    },
    {
      "anonymous": false,
      "inputs": [
        {
          "indexed": true,
          "name": "artist",
          "type": "address"
        },
        {
          "indexed": true,
          "name": "patron",
          "type": "address"
        },
        {
          "indexed": true,
          "name": "agent",
          "type": "address"
        }
      ],
      "name": "Started",
      "type": "event"
    },
    {
      "anonymous": false,
      "inputs": [
        {
          "indexed": true,
          "name": "artist",
          "type": "address"
        },
        {
          "indexed": true,
          "name": "patron",
          "type": "address"
        },
        {
          "indexed": true,
          "name": "agent",
          "type": "address"
        },
        {
          "indexed": false,
          "name": "location",
          "type": "bytes32"
        }
      ],
      "name": "Ready",
      "type": "event"
    },
    {
      "anonymous": false,
      "inputs": [
        {
          "indexed": true,
          "name": "artist",
          "type": "address"
        },
        {
          "indexed": true,
          "name": "patron",
          "type": "address"
        },
        {
          "indexed": true,
          "name": "agent",
          "type": "address"
        },
        {
          "indexed": false,
          "name": "amount",
          "type": "uint256"
        }
      ],
      "name": "Refunded",
      "type": "event"
    },
    {
      "constant": false,
      "inputs": [],
      "name": "fund",
      "outputs": [
        {
          "name": "",
          "type": "bool"
        }
      ],
      "payable": true,
      "stateMutability": "payable",
      "type": "function"
    },
    {
      "constant": false,
      "inputs": [],
      "name": "refund",
      "outputs": [],
      "payable": false,
      "stateMutability": "nonpayable",
      "type": "function"
    },
    {
      "constant": false,
      "inputs": [],
      "name": "notifyStarting",
      "outputs": [],
      "payable": false,
      "stateMutability": "nonpayable",
      "type": "function"
    },
    {
      "constant": false,
      "inputs": [
        {
          "name": "_location",
          "type": "bytes32"
        }
      ],
      "name": "notifyReady",
      "outputs": [],
      "payable": false,
      "stateMutability": "nonpayable",
      "type": "function"
    },
    {
      "constant": true,
      "inputs": [],
      "name": "getArtLocation",
      "outputs": [
        {
          "name": "",
          "type": "bytes32"
        }
      ],
      "payable": false,
      "stateMutability": "view",
      "type": "function"
    }
  ],
  "bytecode": "0x60806040526000600860006101000a81548160ff02191690831515021790555034801561002b57600080fd5b50604051610100806112848339810180604052810190808051906020019092919080519060200190929190805190602001909291908051906020019092919080519060200190929190805190602001909291908051906020019092919080519060200190929190505050876000806101000a81548173ffffffffffffffffffffffffffffffffffffffff021916908373ffffffffffffffffffffffffffffffffffffffff16021790555085600260006101000a81548173ffffffffffffffffffffffffffffffffffffffff021916908373ffffffffffffffffffffffffffffffffffffffff16021790555086600160006101000a81548173ffffffffffffffffffffffffffffffffffffffff021916908373ffffffffffffffffffffffffffffffffffffffff16021790555084600260146101000a81548161ffff021916908361ffff16021790555083600260166101000a81548161ffff021916908361ffff1602179055508260038190555081600481905550806005819055506000600660006101000a81548160ff021916908360048111156101c557fe5b0217905550600160009054906101000a900473ffffffffffffffffffffffffffffffffffffffff1673ffffffffffffffffffffffffffffffffffffffff16600260009054906101000a900473ffffffffffffffffffffffffffffffffffffffff1673ffffffffffffffffffffffffffffffffffffffff166000809054906101000a900473ffffffffffffffffffffffffffffffffffffffff1673ffffffffffffffffffffffffffffffffffffffff167f454b0172f64812df0cd504c2bd7df7aab8ff328a54d946b4bd0fa7c527adf9cc60405160405180910390a45050505050505050610fcd806102b76000396000f3006080604052600436106100d0576000357c0100000000000000000000000000000000000000000000000000000000900463ffffffff1680630ba32b27146100db5780630ef267431461013257806329dcb0cf1461016557806343bc161214610190578063590e1ae3146101e757806363c06101146101fe57806380e659271461022f5780639ededf771461025a578063a035b1fe1461028d578063b51cb82a146102b8578063b60d4288146102eb578063c19d93fb1461030d578063f59d6b9714610346578063f5ff5c761461035d575b6100d86103b4565b50005b3480156100e757600080fd5b506100f061058b565b604051808273ffffffffffffffffffffffffffffffffffffffff1673ffffffffffffffffffffffffffffffffffffffff16815260200191505060405180910390f35b34801561013e57600080fd5b506101476105b1565b604051808261ffff1661ffff16815260200191505060405180910390f35b34801561017157600080fd5b5061017a6105c5565b6040518082815260200191505060405180910390f35b34801561019c57600080fd5b506101a56105cb565b604051808273ffffffffffffffffffffffffffffffffffffffff1673ffffffffffffffffffffffffffffffffffffffff16815260200191505060405180910390f35b3480156101f357600080fd5b506101fc6105f0565b005b34801561020a57600080fd5b5061022d600480360381019080803560001916906020019092919050505061090e565b005b34801561023b57600080fd5b50610244610b41565b6040518082815260200191505060405180910390f35b34801561026657600080fd5b5061026f610b47565b604051808261ffff1661ffff16815260200191505060405180910390f35b34801561029957600080fd5b506102a2610b5b565b6040518082815260200191505060405180910390f35b3480156102c457600080fd5b506102cd610b61565b60405180826000191660001916815260200191505060405180910390f35b6102f36103b4565b604051808215151515815260200191505060405180910390f35b34801561031957600080fd5b50610322610bff565b6040518082600481111561033257fe5b60ff16815260200191505060405180910390f35b34801561035257600080fd5b5061035b610c12565b005b34801561036957600080fd5b50610372610e1c565b604051808273ffffffffffffffffffffffffffffffffffffffff1673ffffffffffffffffffffffffffffffffffffffff16815260200191505060405180910390f35b60006003548042101515610430576040517f08c379a00000000000000000000000000000000000000000000000000000000081526004018080602001828103825260108152602001807f436f6e747261637420657870697265640000000000000000000000000000000081525060200191505060405180910390fd5b600080600481111561043e57fe5b600660009054906101000a900460ff16600481111561045957fe5b14151561046557600080fd5b6004543073ffffffffffffffffffffffffffffffffffffffff1631101515610582576001600660006101000a81548160ff021916908360048111156104a657fe5b0217905550600160009054906101000a900473ffffffffffffffffffffffffffffffffffffffff1673ffffffffffffffffffffffffffffffffffffffff16600260009054906101000a900473ffffffffffffffffffffffffffffffffffffffff1673ffffffffffffffffffffffffffffffffffffffff166000809054906101000a900473ffffffffffffffffffffffffffffffffffffffff1673ffffffffffffffffffffffffffffffffffffffff167fc6389bf577814d24982845d646dbf66fcabfa7783b6948d7d577bd1dd14c807d60405160405180910390a45b60019250505090565b600260009054906101000a900473ffffffffffffffffffffffffffffffffffffffff1681565b600260169054906101000a900461ffff1681565b60035481565b6000809054906101000a900473ffffffffffffffffffffffffffffffffffffffff1681565b600080600260009054906101000a900473ffffffffffffffffffffffffffffffffffffffff168073ffffffffffffffffffffffffffffffffffffffff163373ffffffffffffffffffffffffffffffffffffffff1614151561065057600080fd5b6003548042101515156106cb576040517f08c379a00000000000000000000000000000000000000000000000000000000081526004018080602001828103825260148152602001807f436f6e7472616374206e6f74206578706972656400000000000000000000000081525060200191505060405180910390fd5b60038060048111156106d957fe5b600660009054906101000a900460ff1660048111156106f457fe5b1415151561070157600080fd5b600480600481111561070f57fe5b600660009054906101000a900460ff16600481111561072a57fe5b1415151561073757600080fd5b3073ffffffffffffffffffffffffffffffffffffffff16319550600454861061076257600454610764565b855b9450600260009054906101000a900473ffffffffffffffffffffffffffffffffffffffff1673ffffffffffffffffffffffffffffffffffffffff166108fc869081150290604051600060405180830381858888f193505050501580156107ce573d6000803e3d6000fd5b506004600660006101000a81548160ff021916908360048111156107ee57fe5b0217905550600160009054906101000a900473ffffffffffffffffffffffffffffffffffffffff1673ffffffffffffffffffffffffffffffffffffffff16600260009054906101000a900473ffffffffffffffffffffffffffffffffffffffff1673ffffffffffffffffffffffffffffffffffffffff166000809054906101000a900473ffffffffffffffffffffffffffffffffffffffff1673ffffffffffffffffffffffffffffffffffffffff167fb7c482f0c0b7ad56e2c7004be448a8ead98a8bbe84675fd80b273563099f8560886040518082815260200191505060405180910390a46000809054906101000a900473ffffffffffffffffffffffffffffffffffffffff1673ffffffffffffffffffffffffffffffffffffffff16ff5b6000809054906101000a900473ffffffffffffffffffffffffffffffffffffffff168073ffffffffffffffffffffffffffffffffffffffff163373ffffffffffffffffffffffffffffffffffffffff1614151561096a57600080fd5b60035480421015156109e4576040517f08c379a00000000000000000000000000000000000000000000000000000000081526004018080602001828103825260108152602001807f436f6e747261637420657870697265640000000000000000000000000000000081525060200191505060405180910390fd5b60028060048111156109f257fe5b600660009054906101000a900460ff166004811115610a0d57fe5b141515610a1957600080fd5b83600781600019169055506003600660006101000a81548160ff02191690836004811115610a4357fe5b0217905550610a50610e42565b600160009054906101000a900473ffffffffffffffffffffffffffffffffffffffff1673ffffffffffffffffffffffffffffffffffffffff16600260009054906101000a900473ffffffffffffffffffffffffffffffffffffffff1673ffffffffffffffffffffffffffffffffffffffff166000809054906101000a900473ffffffffffffffffffffffffffffffffffffffff1673ffffffffffffffffffffffffffffffffffffffff167f4906774def8da39710f86a470f7bfc2e68eb429f64b2090cff63e68c943259fd60075460405180826000191660001916815260200191505060405180910390a450505050565b60055481565b600260149054906101000a900461ffff1681565b60045481565b6000600260009054906101000a900473ffffffffffffffffffffffffffffffffffffffff168073ffffffffffffffffffffffffffffffffffffffff163373ffffffffffffffffffffffffffffffffffffffff16141515610bc057600080fd5b6003806004811115610bce57fe5b600660009054906101000a900460ff166004811115610be957fe5b141515610bf557600080fd5b6007549250505090565b600660009054906101000a900460ff1681565b6000809054906101000a900473ffffffffffffffffffffffffffffffffffffffff168073ffffffffffffffffffffffffffffffffffffffff163373ffffffffffffffffffffffffffffffffffffffff16141515610c6e57600080fd5b6003548042101515610ce8576040517f08c379a00000000000000000000000000000000000000000000000000000000081526004018080602001828103825260108152602001807f436f6e747261637420657870697265640000000000000000000000000000000081525060200191505060405180910390fd5b6001806004811115610cf657fe5b600660009054906101000a900460ff166004811115610d1157fe5b141515610d1d57600080fd5b6002600660006101000a81548160ff02191690836004811115610d3c57fe5b0217905550600160009054906101000a900473ffffffffffffffffffffffffffffffffffffffff1673ffffffffffffffffffffffffffffffffffffffff16600260009054906101000a900473ffffffffffffffffffffffffffffffffffffffff1673ffffffffffffffffffffffffffffffffffffffff166000809054906101000a900473ffffffffffffffffffffffffffffffffffffffff1673ffffffffffffffffffffffffffffffffffffffff167fe7ccbdddf2d84fab545fb1aad35fd684ef7cce1df6df25facfb32fe3de037f1d60405160405180910390a4505050565b600160009054906101000a900473ffffffffffffffffffffffffffffffffffffffff1681565b6003806004811115610e5057fe5b600660009054906101000a900460ff166004811115610e6b57fe5b141515610e7757600080fd5b60001515600860009054906101000a900460ff161515141515610e9957600080fd5b6001600860006101000a81548160ff021916908315150217905550600160009054906101000a900473ffffffffffffffffffffffffffffffffffffffff1673ffffffffffffffffffffffffffffffffffffffff166108fc6005549081150290604051600060405180830381858888f19350505050158015610f1e573d6000803e3d6000fd5b506000809054906101000a900473ffffffffffffffffffffffffffffffffffffffff1673ffffffffffffffffffffffffffffffffffffffff166108fc3073ffffffffffffffffffffffffffffffffffffffff16319081150290604051600060405180830381858888f19350505050158015610f9d573d6000803e3d6000fd5b50505600a165627a7a7230582048a8ab4397e9be7adbe7eaa778c9139221c542b4e444b181d6602cc09cd093a80029",
  "source": "pragma solidity ^0.4.24;\n\nimport './Util.sol';\n\ncontract Commission is AccessRestriction, Expires {\n\n  enum States {\n    CREATED,\n    FUNDED,\n    STARTED,\n    READY,\n    REFUNDED\n  }\n\n  modifier isState(States s) {\n    require(state == s);\n    _;\n  }\n\n  modifier notState(States s) {\n    require(state != s);\n    _;\n  }\n\n  address public artist;\n  address public agent;\n  address public patron;\n  uint16 public width;\n  uint16 public height;\n  uint public deadline;\n  uint public price;\n  uint public agentCut;\n  States public state;\n  bytes32 location;\n  bool paid = false;\n\n\n  event Created(address indexed artist, address indexed patron, address indexed agent);\n  event Funded(address indexed artist, address indexed patron, address indexed agent);\n  event Started(address indexed artist, address indexed patron, address indexed agent);\n  event Ready(address indexed artist, address indexed patron, address indexed agent, bytes32 location);\n  event Refunded(address indexed artist, address indexed patron, address indexed agent, uint amount);\n\n  constructor(\n        address _artist,\n        address _agent,\n        address _patron,\n        uint16 _width,\n        uint16 _height,\n        uint _deadline,\n        uint _price,\n        uint _agentCut) public {\n    artist = _artist;\n    patron = _patron;\n    agent = _agent;\n    width = _width;\n    height = _height;\n    deadline = _deadline;\n    price = _price;\n    agentCut = _agentCut;\n    state = States.CREATED;\n    emit Created(artist, patron, agent);\n  }\n\n  /** Anyone can fund an art piece. Note that only the patron can refund it, though. */\n  function fund() public payable notExpired(deadline) isState(States.CREATED) returns(bool) {\n    if (address(this).balance >= price) {\n      state = States.FUNDED;\n      emit Funded(artist, patron, agent);\n    }\n    return true;\n  }\n\n  /** If expired without the artist creating the work in time, the patron can get their money back */\n  function refund() public onlyBy(patron) expired(deadline) notState(States.READY) notState(States.REFUNDED) {\n    uint bal = address(this).balance;\n    uint amt = (bal < price ? bal : price); // Refund up to a maximum of the price of the commission\n    patron.transfer(amt);\n    state = States.REFUNDED;\n    emit Refunded(artist, patron, agent, amt);\n    selfdestruct(artist);\n  }\n\n  function payout() internal isState(States.READY) {\n    require(paid == false);\n    paid = true;\n    agent.transfer(agentCut);\n    artist.transfer(address(this).balance);\n  }\n\n  /** Called by artist to inform that it is starting to create the work */\n  function notifyStarting() public onlyBy(artist) notExpired(deadline) isState(States.FUNDED) {\n    state = States.STARTED;\n    emit Started(artist, patron, agent);\n  }\n\n  /** Called by the artist to inform that the work is completed. Delivers the location of the work */\n  function notifyReady(bytes32 _location) public onlyBy(artist) notExpired(deadline) isState(States.STARTED) {\n    location = _location;\n    state = States.READY;\n    payout();\n    emit Ready(artist, patron, agent, location);\n  }\n\n  /** \n  * Eventually the location should be ecrypted so only the patron can view it,\n  * but no time and also this: https://github.com/ethereum/EIPs/pull/1098\n  */\n  function getArtLocation() public view onlyBy(patron) isState(States.READY) returns(bytes32) {\n    return location;\n  }\n\n  /** Redirect payments to the funding logic */\n  function() payable public {\n    fund();\n  }\n}",
  "sourcePath": "/Users/briancort/OneDrive/Personal Development/ConsensysEthereum/reactbox/contracts/Commission.sol",
  "compiler": {
    "name": "solc",
    "version": "0.4.24+commit.e67f0147.Emscripten.clang"
  },
  "schemaVersion": "2.0.1",
  "updatedAt": "2018-08-24T04:26:33.746Z"
}