{
  "contractName": "LinkedList",
  "abi": [
    {
      "constant": true,
      "inputs": [
        {
          "name": "self",
          "type": "LinkedList.List storage"
        },
        {
          "name": "id",
          "type": "bytes32"
        }
      ],
      "name": "getData",
      "outputs": [
        {
          "name": "",
          "type": "address"
        }
      ],
      "payable": false,
      "stateMutability": "view",
      "type": "function"
    },
    {
      "constant": true,
      "inputs": [
        {
          "name": "self",
          "type": "LinkedList.List storage"
        }
      ],
      "name": "getHeadData",
      "outputs": [
        {
          "name": "",
          "type": "address"
        }
      ],
      "payable": false,
      "stateMutability": "view",
      "type": "function"
    },
    {
      "constant": true,
      "inputs": [
        {
          "name": "self",
          "type": "LinkedList.List storage"
        }
      ],
      "name": "getTailData",
      "outputs": [
        {
          "name": "",
          "type": "address"
        }
      ],
      "payable": false,
      "stateMutability": "view",
      "type": "function"
    },
    {
      "constant": false,
      "inputs": [
        {
          "name": "self",
          "type": "LinkedList.List storage"
        },
        {
          "name": "data",
          "type": "address"
        }
      ],
      "name": "addFirst",
      "outputs": [],
      "payable": false,
      "stateMutability": "nonpayable",
      "type": "function"
    },
    {
      "constant": false,
      "inputs": [
        {
          "name": "self",
          "type": "LinkedList.List storage"
        },
        {
          "name": "data",
          "type": "address"
        }
      ],
      "name": "addLast",
      "outputs": [],
      "payable": false,
      "stateMutability": "nonpayable",
      "type": "function"
    },
    {
      "constant": false,
      "inputs": [
        {
          "name": "self",
          "type": "LinkedList.List storage"
        }
      ],
      "name": "removeFirst",
      "outputs": [
        {
          "name": "",
          "type": "address"
        }
      ],
      "payable": false,
      "stateMutability": "nonpayable",
      "type": "function"
    },
    {
      "constant": false,
      "inputs": [
        {
          "name": "self",
          "type": "LinkedList.List storage"
        }
      ],
      "name": "removeLast",
      "outputs": [
        {
          "name": "",
          "type": "address"
        }
      ],
      "payable": false,
      "stateMutability": "nonpayable",
      "type": "function"
    }
  ],
  "bytecode": "0x610a51610030600b82828239805160001a6073146000811461002057610022565bfe5b5030600052607381538281f300730000000000000000000000000000000000000000301460806040526004361061009a576000357c0100000000000000000000000000000000000000000000000000000000900463ffffffff168063181a0a951461009f5780634928cb941461010d5780638174f7a11461016d57806388c4b19a146101cd578063ba2a22dc1461021a578063bf76dc6e14610287578063e7471780146102d4575b600080fd5b6100cb600480360381019080803590602001909291908035600019169060200190929190505050610341565b604051808273ffffffffffffffffffffffffffffffffffffffff1673ffffffffffffffffffffffffffffffffffffffff16815260200191505060405180910390f35b61012b6004803603810190808035906020019092919050505061038c565b604051808273ffffffffffffffffffffffffffffffffffffffff1673ffffffffffffffffffffffffffffffffffffffff16815260200191505060405180910390f35b61018b600480360381019080803590602001909291905050506103da565b604051808273ffffffffffffffffffffffffffffffffffffffff1673ffffffffffffffffffffffffffffffffffffffff16815260200191505060405180910390f35b8180156101d957600080fd5b5061021860048036038101908080359060200190929190803573ffffffffffffffffffffffffffffffffffffffff169060200190929190505050610428565b005b81801561022657600080fd5b5061024560048036038101908080359060200190929190505050610616565b604051808273ffffffffffffffffffffffffffffffffffffffff1673ffffffffffffffffffffffffffffffffffffffff16815260200191505060405180910390f35b81801561029357600080fd5b506102d260048036038101908080359060200190929190803573ffffffffffffffffffffffffffffffffffffffff169060200190929190505050610705565b005b8180156102e057600080fd5b506102ff60048036038101908080359060200190929190505050610936565b604051808273ffffffffffffffffffffffffffffffffffffffff1673ffffffffffffffffffffffffffffffffffffffff16815260200191505060405180910390f35b6000826000016000836000191660001916815260200190815260200160002060000160009054906101000a900473ffffffffffffffffffffffffffffffffffffffff16905092915050565b600081600001600083600101546000191660001916815260200190815260200160002060000160009054906101000a900473ffffffffffffffffffffffffffffffffffffffff169050919050565b600081600001600083600201546000191660001916815260200190815260200160002060000160009054906101000a900473ffffffffffffffffffffffffffffffffffffffff169050919050565b600081428460010154604051602001808473ffffffffffffffffffffffffffffffffffffffff1673ffffffffffffffffffffffffffffffffffffffff166c01000000000000000000000000028152601401838152602001826000191660001916815260200193505050506040516020818303038152906040526040518082805190602001908083835b6020831015156104d657805182526020820191506020810190506020830392506104b1565b6001836020036101000a038019825116818451168082178552505050505050905001915050604051809103902090506060604051908101604052808373ffffffffffffffffffffffffffffffffffffffff1681526020016000600102600019168152602001846001015460001916815250836000016000836000191660001916815260200190815260200160002060008201518160000160006101000a81548173ffffffffffffffffffffffffffffffffffffffff021916908373ffffffffffffffffffffffffffffffffffffffff160217905550602082015181600101906000191690556040820151816002019060001916905590505080836001018160001916905550600060010283600201546000191614156105fd57808360020181600019169055505b8260030160008154809291906001019190505550505050565b60008060006001028360020154600019161415151561063457600080fd5b8260000160008460020154600019166000191681526020019081526020016000209050826000016000846002015460001916600019168152602001908152602001600020600080820160006101000a81549073ffffffffffffffffffffffffffffffffffffffff021916905560018201600090556002820160009055505080600101548360020181600019169055508260030160008154809291906001900391905055508060000160009054906101000a900473ffffffffffffffffffffffffffffffffffffffff16915050919050565b600081428460020154604051602001808473ffffffffffffffffffffffffffffffffffffffff1673ffffffffffffffffffffffffffffffffffffffff166c01000000000000000000000000028152601401838152602001826000191660001916815260200193505050506040516020818303038152906040526040518082805190602001908083835b6020831015156107b3578051825260208201915060208101905060208303925061078e565b6001836020036101000a038019825116818451168082178552505050505050905001915050604051809103902090506060604051908101604052808373ffffffffffffffffffffffffffffffffffffffff1681526020018460020154600019168152602001600060010260001916815250836000016000836000191660001916815260200190815260200160002060008201518160000160006101000a81548173ffffffffffffffffffffffffffffffffffffffff021916908373ffffffffffffffffffffffffffffffffffffffff160217905550602082015181600101906000191690556040820151816002019060001916905590505060006001028360020154600019161415156108ee578083600001600085600201546000191660001916815260200190815260200160002060020181600019169055505b808360020181600019169055506000600102836001015460001916141561091d57808360010181600019169055505b8260030160008154809291906001019190505550505050565b60008060006001028360010154600019161415151561095457600080fd5b8260000160008460010154600019166000191681526020019081526020016000209050826000016000846001015460001916600019168152602001908152602001600020600080820160006101000a81549073ffffffffffffffffffffffffffffffffffffffff021916905560018201600090556002820160009055505080600201548360010181600019169055508260030160008154809291906001900391905055508060000160009054906101000a900473ffffffffffffffffffffffffffffffffffffffff169150509190505600a165627a7a723058203325a474e9899601e7197144a4c9356d48735ce72829e97fc31053dec3a7916f0029",
  "source": "pragma solidity ^0.4.24;\n\ncontract Owned {\n  address owner;\n\n  constructor() public {\n    owner = msg.sender;\n  }\n\n  modifier onlyOwner {\n      require(msg.sender == owner, 'Only owner can call this function');\n      _;\n  }\n}\n\ncontract Mortal is Owned {\n  function kill() public onlyOwner {\n    selfdestruct(owner);\n  }\n}\n\ncontract Stoppable is Owned {\n  \n  bool isStopped = false;\n\n  modifier stopped() {\n    require(isStopped);\n    _;\n  }\n\n  modifier running() {\n    require(!isStopped);\n    _;\n  }\n\n  function stopContract() public onlyOwner {\n    isStopped = true;\n  }\n\n  function resumeContract() public onlyOwner {\n    isStopped = false;\n  }\n\n  function deposit() public payable stopped returns(bool) {\n    return true;\n  }\n\n  function withdrawal() public stopped onlyOwner {\n    owner.transfer(address(this).balance);\n  }\n}\n\ncontract AccessRestriction {\n  \n  modifier onlyBy(address _account) {\n    require(msg.sender == _account);\n    _;\n  }\n\n  modifier onlyAfter(uint _time) {\n    require(now >= _time);\n    _;\n  }\n\n  modifier canAfford(uint cost) {\n    require(msg.value >= cost);\n    _;\n  }\n\n  modifier costs(uint _amount) {\n    _;\n    if (msg.value > _amount) {\n      msg.sender.transfer(msg.value - _amount);\n    }\n  }\n}\n\ncontract Expires {\n  \n  modifier notExpired(uint expiry) {\n    require(now < expiry);\n    _;\n  }\n\n  modifier expired(uint expiry) {\n    require(now >= expiry);\n    _;\n  }\n}\n\nlibrary LinkedList {\n  struct Item {\n    address data;\n    bytes32 prev;\n    bytes32 next;\n  }\n\n  struct List {\n    mapping (bytes32 => Item) items;\n    bytes32 head;\n    bytes32 tail;\n    uint size;\n  }\n\n  function getData(List storage self, bytes32 id) public view returns(address) {\n    return self.items[id].data;\n  }\n\n  function getHeadData(List storage self) public view returns(address) {\n    return self.items[self.head].data;\n  }\n\n  function getTailData(List storage self) public view returns(address) {\n    return self.items[self.tail].data;\n  }\n\n  function addFirst(List storage self, address data) public {\n    bytes32 id = keccak256(abi.encodePacked(data,now,self.head));\n    self.items[id] = Item({data: data, prev: 0, next: self.head});\n    self.head = id;\n    if (self.tail == 0) {\n      self.tail = id;\n    }\n    self.size++;\n  }\n\n  function addLast(List storage self, address data) public {\n    bytes32 id = keccak256(abi.encodePacked(data,now,self.tail));\n    self.items[id] = Item({data: data, prev: self.tail, next: 0});\n    if (self.tail != 0) {\n      self.items[self.tail].next = id;\n    }\n    self.tail = id;\n    if (self.head == 0) {\n      self.head = id;\n    }\n    self.size++;\n  }\n\n  function removeFirst(List storage self) public returns(address) {\n    require(self.head != 0);\n    Item storage item = self.items[self.head];\n    delete self.items[self.head];\n    self.head = item.next;\n    self.size--;\n    return item.data;\n  }\n\n  function removeLast(List storage self) public returns(address) {\n    require(self.tail != 0);\n    Item storage item = self.items[self.tail];\n    delete self.items[self.tail];\n    self.tail = item.prev;\n    self.size--;\n    return item.data;\n  }\n\n\n}",
  "sourcePath": "/Users/briancort/OneDrive/Personal Development/ConsensysEthereum/reactbox/contracts/Util.sol",
  "compiler": {
    "name": "solc",
    "version": "0.4.24+commit.e67f0147.Emscripten.clang"
  },
  "schemaVersion": "2.0.1",
  "updatedAt": "2018-08-17T18:03:46.462Z"
}