{
  "contractName": "Stoppable",
  "abi": [
    {
      "constant": true,
      "inputs": [],
      "name": "owner",
      "outputs": [
        {
          "name": "",
          "type": "address"
        }
      ],
      "payable": false,
      "stateMutability": "view",
      "type": "function"
    },
    {
      "constant": false,
      "inputs": [],
      "name": "stopContract",
      "outputs": [],
      "payable": false,
      "stateMutability": "nonpayable",
      "type": "function"
    },
    {
      "constant": false,
      "inputs": [],
      "name": "resumeContract",
      "outputs": [],
      "payable": false,
      "stateMutability": "nonpayable",
      "type": "function"
    },
    {
      "constant": false,
      "inputs": [],
      "name": "deposit",
      "outputs": [
        {
          "name": "",
          "type": "bool"
        }
      ],
      "payable": true,
      "stateMutability": "payable",
      "type": "function"
    },
    {
      "constant": false,
      "inputs": [],
      "name": "withdrawal",
      "outputs": [],
      "payable": false,
      "stateMutability": "nonpayable",
      "type": "function"
    }
  ],
  "bytecode": "0x608060405260008060146101000a81548160ff021916908315150217905550336000806101000a81548173ffffffffffffffffffffffffffffffffffffffff021916908373ffffffffffffffffffffffffffffffffffffffff1602179055506105378061006d6000396000f30060806040526004361061006d576000357c0100000000000000000000000000000000000000000000000000000000900463ffffffff16806312253a6c146100725780638da5cb5b14610089578063c4bc5da5146100e0578063d0e30db0146100f7578063d4e9329214610119575b600080fd5b34801561007e57600080fd5b50610087610130565b005b34801561009557600080fd5b5061009e610237565b604051808273ffffffffffffffffffffffffffffffffffffffff1673ffffffffffffffffffffffffffffffffffffffff16815260200191505060405180910390f35b3480156100ec57600080fd5b506100f561025c565b005b6100ff610362565b604051808215151515815260200191505060405180910390f35b34801561012557600080fd5b5061012e610385565b005b6000809054906101000a900473ffffffffffffffffffffffffffffffffffffffff1673ffffffffffffffffffffffffffffffffffffffff163373ffffffffffffffffffffffffffffffffffffffff1614151561021a576040517f08c379a00000000000000000000000000000000000000000000000000000000081526004018080602001828103825260218152602001807f4f6e6c79206f776e65722063616e2063616c6c20746869732066756e6374696f81526020017f6e0000000000000000000000000000000000000000000000000000000000000081525060400191505060405180910390fd5b6001600060146101000a81548160ff021916908315150217905550565b6000809054906101000a900473ffffffffffffffffffffffffffffffffffffffff1681565b6000809054906101000a900473ffffffffffffffffffffffffffffffffffffffff1673ffffffffffffffffffffffffffffffffffffffff163373ffffffffffffffffffffffffffffffffffffffff16141515610346576040517f08c379a00000000000000000000000000000000000000000000000000000000081526004018080602001828103825260218152602001807f4f6e6c79206f776e65722063616e2063616c6c20746869732066756e6374696f81526020017f6e0000000000000000000000000000000000000000000000000000000000000081525060400191505060405180910390fd5b60008060146101000a81548160ff021916908315150217905550565b60008060149054906101000a900460ff16151561037e57600080fd5b6001905090565b600060149054906101000a900460ff1615156103a057600080fd5b6000809054906101000a900473ffffffffffffffffffffffffffffffffffffffff1673ffffffffffffffffffffffffffffffffffffffff163373ffffffffffffffffffffffffffffffffffffffff1614151561048a576040517f08c379a00000000000000000000000000000000000000000000000000000000081526004018080602001828103825260218152602001807f4f6e6c79206f776e65722063616e2063616c6c20746869732066756e6374696f81526020017f6e0000000000000000000000000000000000000000000000000000000000000081525060400191505060405180910390fd5b6000809054906101000a900473ffffffffffffffffffffffffffffffffffffffff1673ffffffffffffffffffffffffffffffffffffffff166108fc3073ffffffffffffffffffffffffffffffffffffffff16319081150290604051600060405180830381858888f19350505050158015610508573d6000803e3d6000fd5b505600a165627a7a72305820c168c54e02cc7ce4f738bdbd18d90ed80795b9b162a4ce55819052396d9687260029",
  "source": "pragma solidity ^0.4.24;\n\ncontract Owned {\n  address public owner;\n\n  constructor() public {\n    owner = msg.sender;\n  }\n\n  modifier onlyOwner {\n      require(msg.sender == owner, 'Only owner can call this function');\n      _;\n  }\n}\n\ncontract Mortal is Owned {\n  function kill() public onlyOwner {\n    selfdestruct(owner);\n  }\n}\n\ncontract Stoppable is Owned {\n  \n  bool isStopped = false;\n\n  modifier stopped() {\n    require(isStopped);\n    _;\n  }\n\n  modifier running() {\n    require(!isStopped);\n    _;\n  }\n\n  function stopContract() public onlyOwner {\n    isStopped = true;\n  }\n\n  function resumeContract() public onlyOwner {\n    isStopped = false;\n  }\n\n  function deposit() public payable stopped returns(bool) {\n    return true;\n  }\n\n  function withdrawal() public stopped onlyOwner {\n    owner.transfer(address(this).balance);\n  }\n}\n\ncontract AccessRestriction {\n  \n  modifier onlyBy(address _account) {\n    require(msg.sender == _account);\n    _;\n  }\n\n  modifier onlyAfter(uint _time) {\n    require(now >= _time);\n    _;\n  }\n\n  modifier canAfford(uint cost) {\n    require(msg.value >= cost);\n    _;\n  }\n\n  modifier costs(uint _amount) {\n    _;\n    if (msg.value > _amount) {\n      msg.sender.transfer(msg.value - _amount);\n    }\n  }\n}\n\ncontract Expires {\n  \n  modifier notExpired(uint expiry) {\n    require(now < expiry, 'Contract expired');\n    _;\n  }\n\n  modifier expired(uint expiry) {\n    require(now >= expiry, 'Contract not expired');\n    _;\n  }\n}\n",
  "sourcePath": "/Users/briancort/OneDrive/Personal Development/ConsensysEthereum/finalProjectRedo/contracts/Util.sol",
  "compiler": {
    "name": "solc",
    "version": "0.4.24+commit.e67f0147.Emscripten.clang"
  },
  "schemaVersion": "2.0.1",
  "updatedAt": "2018-11-18T18:56:34.242Z"
}