{
  "contractName": "Stoppable",
  "abi": [
    {
      "constant": false,
      "inputs": [],
      "name": "stopContract",
      "outputs": [],
      "payable": false,
      "stateMutability": "nonpayable",
      "type": "function"
    },
    {
      "constant": false,
      "inputs": [],
      "name": "resumeContract",
      "outputs": [],
      "payable": false,
      "stateMutability": "nonpayable",
      "type": "function"
    },
    {
      "constant": false,
      "inputs": [],
      "name": "deposit",
      "outputs": [
        {
          "name": "",
          "type": "bool"
        }
      ],
      "payable": true,
      "stateMutability": "payable",
      "type": "function"
    },
    {
      "constant": false,
      "inputs": [],
      "name": "withdrawal",
      "outputs": [],
      "payable": false,
      "stateMutability": "nonpayable",
      "type": "function"
    }
  ],
  "bytecode": "0x608060405260008060146101000a81548160ff021916908315150217905550336000806101000a81548173ffffffffffffffffffffffffffffffffffffffff021916908373ffffffffffffffffffffffffffffffffffffffff1602179055506104b08061006d6000396000f300608060405260043610610062576000357c0100000000000000000000000000000000000000000000000000000000900463ffffffff16806312253a6c14610067578063c4bc5da51461007e578063d0e30db014610095578063d4e93292146100b7575b600080fd5b34801561007357600080fd5b5061007c6100ce565b005b34801561008a57600080fd5b506100936101d5565b005b61009d6102db565b604051808215151515815260200191505060405180910390f35b3480156100c357600080fd5b506100cc6102fe565b005b6000809054906101000a900473ffffffffffffffffffffffffffffffffffffffff1673ffffffffffffffffffffffffffffffffffffffff163373ffffffffffffffffffffffffffffffffffffffff161415156101b8576040517f08c379a00000000000000000000000000000000000000000000000000000000081526004018080602001828103825260218152602001807f4f6e6c79206f776e65722063616e2063616c6c20746869732066756e6374696f81526020017f6e0000000000000000000000000000000000000000000000000000000000000081525060400191505060405180910390fd5b6001600060146101000a81548160ff021916908315150217905550565b6000809054906101000a900473ffffffffffffffffffffffffffffffffffffffff1673ffffffffffffffffffffffffffffffffffffffff163373ffffffffffffffffffffffffffffffffffffffff161415156102bf576040517f08c379a00000000000000000000000000000000000000000000000000000000081526004018080602001828103825260218152602001807f4f6e6c79206f776e65722063616e2063616c6c20746869732066756e6374696f81526020017f6e0000000000000000000000000000000000000000000000000000000000000081525060400191505060405180910390fd5b60008060146101000a81548160ff021916908315150217905550565b60008060149054906101000a900460ff1615156102f757600080fd5b6001905090565b600060149054906101000a900460ff16151561031957600080fd5b6000809054906101000a900473ffffffffffffffffffffffffffffffffffffffff1673ffffffffffffffffffffffffffffffffffffffff163373ffffffffffffffffffffffffffffffffffffffff16141515610403576040517f08c379a00000000000000000000000000000000000000000000000000000000081526004018080602001828103825260218152602001807f4f6e6c79206f776e65722063616e2063616c6c20746869732066756e6374696f81526020017f6e0000000000000000000000000000000000000000000000000000000000000081525060400191505060405180910390fd5b6000809054906101000a900473ffffffffffffffffffffffffffffffffffffffff1673ffffffffffffffffffffffffffffffffffffffff166108fc3073ffffffffffffffffffffffffffffffffffffffff16319081150290604051600060405180830381858888f19350505050158015610481573d6000803e3d6000fd5b505600a165627a7a7230582010683f10e5f618d75c0da090f709dc22d9c53cb95a1a8e4c419b4c36fe0a57b70029",
  "source": "pragma solidity ^0.4.24;\n\ncontract Owned {\n  address owner;\n\n  constructor() public {\n    owner = msg.sender;\n  }\n\n  modifier onlyOwner {\n      require(msg.sender == owner, 'Only owner can call this function');\n      _;\n  }\n}\n\ncontract Mortal is Owned {\n  function kill() public onlyOwner {\n    selfdestruct(owner);\n  }\n}\n\ncontract Stoppable is Owned {\n  \n  bool isStopped = false;\n\n  modifier stopped() {\n    require(isStopped);\n    _;\n  }\n\n  modifier running() {\n    require(!isStopped);\n    _;\n  }\n\n  function stopContract() public onlyOwner {\n    isStopped = true;\n  }\n\n  function resumeContract() public onlyOwner {\n    isStopped = false;\n  }\n\n  function deposit() public payable stopped returns(bool) {\n    return true;\n  }\n\n  function withdrawal() public stopped onlyOwner {\n    owner.transfer(address(this).balance);\n  }\n}\n\ncontract AccessRestriction {\n  \n  modifier onlyBy(address _account) {\n    require(msg.sender == _account);\n    _;\n  }\n\n  modifier onlyAfter(uint _time) {\n    require(now >= _time);\n    _;\n  }\n\n  modifier canAfford(uint cost) {\n    require(msg.value >= cost);\n    _;\n  }\n\n  modifier costs(uint _amount) {\n    _;\n    if (msg.value > _amount) {\n      msg.sender.transfer(msg.value - _amount);\n    }\n  }\n}\n\ncontract Expires {\n  \n  modifier notExpired(uint expiry) {\n    require(now < expiry, 'Contract expired');\n    _;\n  }\n\n  modifier expired(uint expiry) {\n    require(now >= expiry, 'Contract not expired');\n    _;\n  }\n}\n",
  "sourcePath": "/Users/briancort/OneDrive/Personal Development/ConsensysEthereum/reactbox/contracts/Util.sol",
  "compiler": {
    "name": "solc",
    "version": "0.4.24+commit.e67f0147.Emscripten.clang"
  },
  "schemaVersion": "2.0.1",
  "updatedAt": "2018-08-26T03:57:17.568Z"
}